{
  "_format": "hh-sol-artifact-1",
  "contractName": "ContentMediaToken",
  "sourceName": "contracts/token.sol",
  "abi": [
    {
      "inputs": [],
      "stateMutability": "nonpayable",
      "type": "constructor"
    },
    {
      "inputs": [
        {
          "internalType": "address",
          "name": "spender",
          "type": "address"
        },
        {
          "internalType": "uint256",
          "name": "allowance",
          "type": "uint256"
        },
        {
          "internalType": "uint256",
          "name": "needed",
          "type": "uint256"
        }
      ],
      "name": "ERC20InsufficientAllowance",
      "type": "error"
    },
    {
      "inputs": [
        {
          "internalType": "address",
          "name": "sender",
          "type": "address"
        },
        {
          "internalType": "uint256",
          "name": "balance",
          "type": "uint256"
        },
        {
          "internalType": "uint256",
          "name": "needed",
          "type": "uint256"
        }
      ],
      "name": "ERC20InsufficientBalance",
      "type": "error"
    },
    {
      "inputs": [
        {
          "internalType": "address",
          "name": "approver",
          "type": "address"
        }
      ],
      "name": "ERC20InvalidApprover",
      "type": "error"
    },
    {
      "inputs": [
        {
          "internalType": "address",
          "name": "receiver",
          "type": "address"
        }
      ],
      "name": "ERC20InvalidReceiver",
      "type": "error"
    },
    {
      "inputs": [
        {
          "internalType": "address",
          "name": "sender",
          "type": "address"
        }
      ],
      "name": "ERC20InvalidSender",
      "type": "error"
    },
    {
      "inputs": [
        {
          "internalType": "address",
          "name": "spender",
          "type": "address"
        }
      ],
      "name": "ERC20InvalidSpender",
      "type": "error"
    },
    {
      "inputs": [
        {
          "internalType": "address",
          "name": "owner",
          "type": "address"
        }
      ],
      "name": "OwnableInvalidOwner",
      "type": "error"
    },
    {
      "inputs": [
        {
          "internalType": "address",
          "name": "account",
          "type": "address"
        }
      ],
      "name": "OwnableUnauthorizedAccount",
      "type": "error"
    },
    {
      "anonymous": false,
      "inputs": [
        {
          "indexed": true,
          "internalType": "address",
          "name": "owner",
          "type": "address"
        },
        {
          "indexed": true,
          "internalType": "address",
          "name": "spender",
          "type": "address"
        },
        {
          "indexed": false,
          "internalType": "uint256",
          "name": "value",
          "type": "uint256"
        }
      ],
      "name": "Approval",
      "type": "event"
    },
    {
      "anonymous": false,
      "inputs": [
        {
          "indexed": true,
          "internalType": "address",
          "name": "previousOwner",
          "type": "address"
        },
        {
          "indexed": true,
          "internalType": "address",
          "name": "newOwner",
          "type": "address"
        }
      ],
      "name": "OwnershipTransferred",
      "type": "event"
    },
    {
      "anonymous": false,
      "inputs": [
        {
          "indexed": true,
          "internalType": "address",
          "name": "from",
          "type": "address"
        },
        {
          "indexed": true,
          "internalType": "address",
          "name": "to",
          "type": "address"
        },
        {
          "indexed": false,
          "internalType": "uint256",
          "name": "value",
          "type": "uint256"
        }
      ],
      "name": "Transfer",
      "type": "event"
    },
    {
      "inputs": [],
      "name": "AI_SUPPLY_PERCENTAGE",
      "outputs": [
        {
          "internalType": "uint256",
          "name": "",
          "type": "uint256"
        }
      ],
      "stateMutability": "view",
      "type": "function"
    },
    {
      "inputs": [],
      "name": "DAILY_MINT_AMOUNT",
      "outputs": [
        {
          "internalType": "uint256",
          "name": "",
          "type": "uint256"
        }
      ],
      "stateMutability": "view",
      "type": "function"
    },
    {
      "inputs": [],
      "name": "aiAgent",
      "outputs": [
        {
          "internalType": "address",
          "name": "",
          "type": "address"
        }
      ],
      "stateMutability": "view",
      "type": "function"
    },
    {
      "inputs": [
        {
          "internalType": "address",
          "name": "owner",
          "type": "address"
        },
        {
          "internalType": "address",
          "name": "spender",
          "type": "address"
        }
      ],
      "name": "allowance",
      "outputs": [
        {
          "internalType": "uint256",
          "name": "",
          "type": "uint256"
        }
      ],
      "stateMutability": "view",
      "type": "function"
    },
    {
      "inputs": [
        {
          "internalType": "address",
          "name": "spender",
          "type": "address"
        },
        {
          "internalType": "uint256",
          "name": "value",
          "type": "uint256"
        }
      ],
      "name": "approve",
      "outputs": [
        {
          "internalType": "bool",
          "name": "",
          "type": "bool"
        }
      ],
      "stateMutability": "nonpayable",
      "type": "function"
    },
    {
      "inputs": [
        {
          "internalType": "address",
          "name": "account",
          "type": "address"
        }
      ],
      "name": "balanceOf",
      "outputs": [
        {
          "internalType": "uint256",
          "name": "",
          "type": "uint256"
        }
      ],
      "stateMutability": "view",
      "type": "function"
    },
    {
      "inputs": [],
      "name": "decimals",
      "outputs": [
        {
          "internalType": "uint8",
          "name": "",
          "type": "uint8"
        }
      ],
      "stateMutability": "view",
      "type": "function"
    },
    {
      "inputs": [
        {
          "internalType": "address",
          "name": "recipient",
          "type": "address"
        },
        {
          "internalType": "uint256",
          "name": "amount",
          "type": "uint256"
        }
      ],
      "name": "distributeTokens",
      "outputs": [],
      "stateMutability": "nonpayable",
      "type": "function"
    },
    {
      "inputs": [],
      "name": "mintDailyTokens",
      "outputs": [],
      "stateMutability": "nonpayable",
      "type": "function"
    },
    {
      "inputs": [],
      "name": "name",
      "outputs": [
        {
          "internalType": "string",
          "name": "",
          "type": "string"
        }
      ],
      "stateMutability": "view",
      "type": "function"
    },
    {
      "inputs": [],
      "name": "owner",
      "outputs": [
        {
          "internalType": "address",
          "name": "",
          "type": "address"
        }
      ],
      "stateMutability": "view",
      "type": "function"
    },
    {
      "inputs": [],
      "name": "renounceOwnership",
      "outputs": [],
      "stateMutability": "nonpayable",
      "type": "function"
    },
    {
      "inputs": [],
      "name": "symbol",
      "outputs": [
        {
          "internalType": "string",
          "name": "",
          "type": "string"
        }
      ],
      "stateMutability": "view",
      "type": "function"
    },
    {
      "inputs": [],
      "name": "totalSupply",
      "outputs": [
        {
          "internalType": "uint256",
          "name": "",
          "type": "uint256"
        }
      ],
      "stateMutability": "view",
      "type": "function"
    },
    {
      "inputs": [
        {
          "internalType": "address",
          "name": "to",
          "type": "address"
        },
        {
          "internalType": "uint256",
          "name": "value",
          "type": "uint256"
        }
      ],
      "name": "transfer",
      "outputs": [
        {
          "internalType": "bool",
          "name": "",
          "type": "bool"
        }
      ],
      "stateMutability": "nonpayable",
      "type": "function"
    },
    {
      "inputs": [
        {
          "internalType": "address",
          "name": "from",
          "type": "address"
        },
        {
          "internalType": "address",
          "name": "to",
          "type": "address"
        },
        {
          "internalType": "uint256",
          "name": "value",
          "type": "uint256"
        }
      ],
      "name": "transferFrom",
      "outputs": [
        {
          "internalType": "bool",
          "name": "",
          "type": "bool"
        }
      ],
      "stateMutability": "nonpayable",
      "type": "function"
    },
    {
      "inputs": [
        {
          "internalType": "address",
          "name": "newOwner",
          "type": "address"
        }
      ],
      "name": "transferOwnership",
      "outputs": [],
      "stateMutability": "nonpayable",
      "type": "function"
    }
  ],
  "bytecode": "0x608060405234801561001057600080fd5b50336040518060400160405280601081526020017f536f6369616c4d65646961546f6b656e000000000000000000000000000000008152506040518060400160405280600381526020017f534d540000000000000000000000000000000000000000000000000000000000815250816003908161008d919061077c565b50806004908161009d919061077c565b505050600073ffffffffffffffffffffffffffffffffffffffff168173ffffffffffffffffffffffffffffffffffffffff16036101125760006040517f1e4fbdf7000000000000000000000000000000000000000000000000000000008152600401610109919061088f565b60405180910390fd5b610121816101b960201b60201c565b50600060646032633b9aca0061013791906108d9565b610141919061094a565b90506101623382633b9aca00610157919061097b565b61027f60201b60201c565b610172308261027f60201b60201c565b33600660006101000a81548173ffffffffffffffffffffffffffffffffffffffff021916908373ffffffffffffffffffffffffffffffffffffffff16021790555050610a44565b6000600560009054906101000a900473ffffffffffffffffffffffffffffffffffffffff16905081600560006101000a81548173ffffffffffffffffffffffffffffffffffffffff021916908373ffffffffffffffffffffffffffffffffffffffff1602179055508173ffffffffffffffffffffffffffffffffffffffff168173ffffffffffffffffffffffffffffffffffffffff167f8be0079c531659141344cd1fd0a4f28419497f9722a3daafe3b4186f6b6457e060405160405180910390a35050565b600073ffffffffffffffffffffffffffffffffffffffff168273ffffffffffffffffffffffffffffffffffffffff16036102f15760006040517fec442f050000000000000000000000000000000000000000000000000000000081526004016102e8919061088f565b60405180910390fd5b6103036000838361030760201b60201c565b5050565b600073ffffffffffffffffffffffffffffffffffffffff168373ffffffffffffffffffffffffffffffffffffffff160361035957806002600082825461034d91906109af565b9250508190555061042c565b60008060008573ffffffffffffffffffffffffffffffffffffffff1673ffffffffffffffffffffffffffffffffffffffff168152602001908152602001600020549050818110156103e5578381836040517fe450d38c0000000000000000000000000000000000000000000000000000000081526004016103dc939291906109f2565b60405180910390fd5b8181036000808673ffffffffffffffffffffffffffffffffffffffff1673ffffffffffffffffffffffffffffffffffffffff16815260200190815260200160002081905550505b600073ffffffffffffffffffffffffffffffffffffffff168273ffffffffffffffffffffffffffffffffffffffff160361047557806002600082825403925050819055506104c2565b806000808473ffffffffffffffffffffffffffffffffffffffff1673ffffffffffffffffffffffffffffffffffffffff168152602001908152602001600020600082825401925050819055505b8173ffffffffffffffffffffffffffffffffffffffff168373ffffffffffffffffffffffffffffffffffffffff167fddf252ad1be2c89b69c2b068fc378daa952ba7f163c4a11628f55a4df523b3ef8360405161051f9190610a29565b60405180910390a3505050565b600081519050919050565b7f4e487b7100000000000000000000000000000000000000000000000000000000600052604160045260246000fd5b7f4e487b7100000000000000000000000000000000000000000000000000000000600052602260045260246000fd5b600060028204905060018216806105ad57607f821691505b6020821081036105c0576105bf610566565b5b50919050565b60008190508160005260206000209050919050565b60006020601f8301049050919050565b600082821b905092915050565b6000600883026106287fffffffffffffffffffffffffffffffffffffffffffffffffffffffffffffffff826105eb565b61063286836105eb565b95508019841693508086168417925050509392505050565b6000819050919050565b6000819050919050565b600061067961067461066f8461064a565b610654565b61064a565b9050919050565b6000819050919050565b6106938361065e565b6106a761069f82610680565b8484546105f8565b825550505050565b600090565b6106bc6106af565b6106c781848461068a565b505050565b5b818110156106eb576106e06000826106b4565b6001810190506106cd565b5050565b601f82111561073057610701816105c6565b61070a846105db565b81016020851015610719578190505b61072d610725856105db565b8301826106cc565b50505b505050565b600082821c905092915050565b600061075360001984600802610735565b1980831691505092915050565b600061076c8383610742565b9150826002028217905092915050565b6107858261052c565b67ffffffffffffffff81111561079e5761079d610537565b5b6107a88254610595565b6107b38282856106ef565b600060209050601f8311600181146107e657600084156107d4578287015190505b6107de8582610760565b865550610846565b601f1984166107f4866105c6565b60005b8281101561081c578489015182556001820191506020850194506020810190506107f7565b868310156108395784890151610835601f891682610742565b8355505b6001600288020188555050505b505050505050565b600073ffffffffffffffffffffffffffffffffffffffff82169050919050565b60006108798261084e565b9050919050565b6108898161086e565b82525050565b60006020820190506108a46000830184610880565b92915050565b7f4e487b7100000000000000000000000000000000000000000000000000000000600052601160045260246000fd5b60006108e48261064a565b91506108ef8361064a565b92508282026108fd8161064a565b91508282048414831517610914576109136108aa565b5b5092915050565b7f4e487b7100000000000000000000000000000000000000000000000000000000600052601260045260246000fd5b60006109558261064a565b91506109608361064a565b9250826109705761096f61091b565b5b828204905092915050565b60006109868261064a565b91506109918361064a565b92508282039050818111156109a9576109a86108aa565b5b92915050565b60006109ba8261064a565b91506109c58361064a565b92508282019050808211156109dd576109dc6108aa565b5b92915050565b6109ec8161064a565b82525050565b6000606082019050610a076000830186610880565b610a1460208301856109e3565b610a2160408301846109e3565b949350505050565b6000602082019050610a3e60008301846109e3565b92915050565b61133a80610a536000396000f3fe608060405234801561001057600080fd5b506004361061010b5760003560e01c80638da5cb5b116100a2578063a6d5b73211610071578063a6d5b73214610298578063a9059cbb146102b6578063dd62ed3e146102e6578063dd9d201414610316578063f2fde38b146103205761010b565b80638da5cb5b14610220578063950b1d4f1461023e57806395d89b411461025c578063a5ebc8441461027a5761010b565b806323b872dd116100de57806323b872dd14610198578063313ce567146101c857806370a08231146101e6578063715018a6146102165761010b565b806306fdde0314610110578063095ea7b31461012e578063158a49881461015e57806318160ddd1461017a575b600080fd5b61011861033c565b6040516101259190610f22565b60405180910390f35b61014860048036038101906101439190610fdd565b6103ce565b6040516101559190611038565b60405180910390f35b61017860048036038101906101739190610fdd565b6103f1565b005b61018261044b565b60405161018f9190611062565b60405180910390f35b6101b260048036038101906101ad919061107d565b610455565b6040516101bf9190611038565b60405180910390f35b6101d0610484565b6040516101dd91906110ec565b60405180910390f35b61020060048036038101906101fb9190611107565b61048d565b60405161020d9190611062565b60405180910390f35b61021e6104d5565b005b6102286104e9565b6040516102359190611143565b60405180910390f35b610246610513565b6040516102539190611062565b60405180910390f35b610264610518565b6040516102719190610f22565b60405180910390f35b6102826105aa565b60405161028f9190611062565b60405180910390f35b6102a06105b8565b6040516102ad9190611143565b60405180910390f35b6102d060048036038101906102cb9190610fdd565b6105de565b6040516102dd9190611038565b60405180910390f35b61030060048036038101906102fb919061115e565b610601565b60405161030d9190611062565b60405180910390f35b61031e610688565b005b61033a60048036038101906103359190611107565b61069e565b005b60606003805461034b906111cd565b80601f0160208091040260200160405190810160405280929190818152602001828054610377906111cd565b80156103c45780601f10610399576101008083540402835291602001916103c4565b820191906000526020600020905b8154815290600101906020018083116103a757829003601f168201915b5050505050905090565b6000806103d9610724565b90506103e681858561072c565b600191505092915050565b806103fb3061048d565b101561043c576040517f08c379a00000000000000000000000000000000000000000000000000000000081526004016104339061124a565b60405180910390fd5b61044730838361073e565b5050565b6000600254905090565b600080610460610724565b905061046d858285610832565b61047885858561073e565b60019150509392505050565b60006012905090565b60008060008373ffffffffffffffffffffffffffffffffffffffff1673ffffffffffffffffffffffffffffffffffffffff168152602001908152602001600020549050919050565b6104dd6108c7565b6104e7600061094e565b565b6000600560009054906101000a900473ffffffffffffffffffffffffffffffffffffffff16905090565b603281565b606060048054610527906111cd565b80601f0160208091040260200160405190810160405280929190818152602001828054610553906111cd565b80156105a05780601f10610575576101008083540402835291602001916105a0565b820191906000526020600020905b81548152906001019060200180831161058357829003601f168201915b5050505050905090565b69152d02c7e14af680000081565b600660009054906101000a900473ffffffffffffffffffffffffffffffffffffffff1681565b6000806105e9610724565b90506105f681858561073e565b600191505092915050565b6000600160008473ffffffffffffffffffffffffffffffffffffffff1673ffffffffffffffffffffffffffffffffffffffff16815260200190815260200160002060008373ffffffffffffffffffffffffffffffffffffffff1673ffffffffffffffffffffffffffffffffffffffff16815260200190815260200160002054905092915050565b61069c3069152d02c7e14af6800000610a14565b565b6106a66108c7565b600073ffffffffffffffffffffffffffffffffffffffff168173ffffffffffffffffffffffffffffffffffffffff16036107185760006040517f1e4fbdf700000000000000000000000000000000000000000000000000000000815260040161070f9190611143565b60405180910390fd5b6107218161094e565b50565b600033905090565b6107398383836001610a96565b505050565b600073ffffffffffffffffffffffffffffffffffffffff168373ffffffffffffffffffffffffffffffffffffffff16036107b05760006040517f96c6fd1e0000000000000000000000000000000000000000000000000000000081526004016107a79190611143565b60405180910390fd5b600073ffffffffffffffffffffffffffffffffffffffff168273ffffffffffffffffffffffffffffffffffffffff16036108225760006040517fec442f050000000000000000000000000000000000000000000000000000000081526004016108199190611143565b60405180910390fd5b61082d838383610c6d565b505050565b600061083e8484610601565b90507fffffffffffffffffffffffffffffffffffffffffffffffffffffffffffffffff8110156108c157818110156108b1578281836040517ffb8f41b20000000000000000000000000000000000000000000000000000000081526004016108a89392919061126a565b60405180910390fd5b6108c084848484036000610a96565b5b50505050565b6108cf610724565b73ffffffffffffffffffffffffffffffffffffffff166108ed6104e9565b73ffffffffffffffffffffffffffffffffffffffff161461094c57610910610724565b6040517f118cdaa70000000000000000000000000000000000000000000000000000000081526004016109439190611143565b60405180910390fd5b565b6000600560009054906101000a900473ffffffffffffffffffffffffffffffffffffffff16905081600560006101000a81548173ffffffffffffffffffffffffffffffffffffffff021916908373ffffffffffffffffffffffffffffffffffffffff1602179055508173ffffffffffffffffffffffffffffffffffffffff168173ffffffffffffffffffffffffffffffffffffffff167f8be0079c531659141344cd1fd0a4f28419497f9722a3daafe3b4186f6b6457e060405160405180910390a35050565b600073ffffffffffffffffffffffffffffffffffffffff168273ffffffffffffffffffffffffffffffffffffffff1603610a865760006040517fec442f05000000000000000000000000000000000000000000000000000000008152600401610a7d9190611143565b60405180910390fd5b610a9260008383610c6d565b5050565b600073ffffffffffffffffffffffffffffffffffffffff168473ffffffffffffffffffffffffffffffffffffffff1603610b085760006040517fe602df05000000000000000000000000000000000000000000000000000000008152600401610aff9190611143565b60405180910390fd5b600073ffffffffffffffffffffffffffffffffffffffff168373ffffffffffffffffffffffffffffffffffffffff1603610b7a5760006040517f94280d62000000000000000000000000000000000000000000000000000000008152600401610b719190611143565b60405180910390fd5b81600160008673ffffffffffffffffffffffffffffffffffffffff1673ffffffffffffffffffffffffffffffffffffffff16815260200190815260200160002060008573ffffffffffffffffffffffffffffffffffffffff1673ffffffffffffffffffffffffffffffffffffffff168152602001908152602001600020819055508015610c67578273ffffffffffffffffffffffffffffffffffffffff168473ffffffffffffffffffffffffffffffffffffffff167f8c5be1e5ebec7d5bd14f71427d1e84f3dd0314c0f7b2291e5b200ac8c7c3b92584604051610c5e9190611062565b60405180910390a35b50505050565b600073ffffffffffffffffffffffffffffffffffffffff168373ffffffffffffffffffffffffffffffffffffffff1603610cbf578060026000828254610cb391906112d0565b92505081905550610d92565b60008060008573ffffffffffffffffffffffffffffffffffffffff1673ffffffffffffffffffffffffffffffffffffffff16815260200190815260200160002054905081811015610d4b578381836040517fe450d38c000000000000000000000000000000000000000000000000000000008152600401610d429392919061126a565b60405180910390fd5b8181036000808673ffffffffffffffffffffffffffffffffffffffff1673ffffffffffffffffffffffffffffffffffffffff16815260200190815260200160002081905550505b600073ffffffffffffffffffffffffffffffffffffffff168273ffffffffffffffffffffffffffffffffffffffff1603610ddb5780600260008282540392505081905550610e28565b806000808473ffffffffffffffffffffffffffffffffffffffff1673ffffffffffffffffffffffffffffffffffffffff168152602001908152602001600020600082825401925050819055505b8173ffffffffffffffffffffffffffffffffffffffff168373ffffffffffffffffffffffffffffffffffffffff167fddf252ad1be2c89b69c2b068fc378daa952ba7f163c4a11628f55a4df523b3ef83604051610e859190611062565b60405180910390a3505050565b600081519050919050565b600082825260208201905092915050565b60005b83811015610ecc578082015181840152602081019050610eb1565b60008484015250505050565b6000601f19601f8301169050919050565b6000610ef482610e92565b610efe8185610e9d565b9350610f0e818560208601610eae565b610f1781610ed8565b840191505092915050565b60006020820190508181036000830152610f3c8184610ee9565b905092915050565b600080fd5b600073ffffffffffffffffffffffffffffffffffffffff82169050919050565b6000610f7482610f49565b9050919050565b610f8481610f69565b8114610f8f57600080fd5b50565b600081359050610fa181610f7b565b92915050565b6000819050919050565b610fba81610fa7565b8114610fc557600080fd5b50565b600081359050610fd781610fb1565b92915050565b60008060408385031215610ff457610ff3610f44565b5b600061100285828601610f92565b925050602061101385828601610fc8565b9150509250929050565b60008115159050919050565b6110328161101d565b82525050565b600060208201905061104d6000830184611029565b92915050565b61105c81610fa7565b82525050565b60006020820190506110776000830184611053565b92915050565b60008060006060848603121561109657611095610f44565b5b60006110a486828701610f92565b93505060206110b586828701610f92565b92505060406110c686828701610fc8565b9150509250925092565b600060ff82169050919050565b6110e6816110d0565b82525050565b600060208201905061110160008301846110dd565b92915050565b60006020828403121561111d5761111c610f44565b5b600061112b84828501610f92565b91505092915050565b61113d81610f69565b82525050565b60006020820190506111586000830184611134565b92915050565b6000806040838503121561117557611174610f44565b5b600061118385828601610f92565b925050602061119485828601610f92565b9150509250929050565b7f4e487b7100000000000000000000000000000000000000000000000000000000600052602260045260246000fd5b600060028204905060018216806111e557607f821691505b6020821081036111f8576111f761119e565b5b50919050565b7f4e6f7420656e6f75676820746f6b656e73000000000000000000000000000000600082015250565b6000611234601183610e9d565b915061123f826111fe565b602082019050919050565b6000602082019050818103600083015261126381611227565b9050919050565b600060608201905061127f6000830186611134565b61128c6020830185611053565b6112996040830184611053565b949350505050565b7f4e487b7100000000000000000000000000000000000000000000000000000000600052601160045260246000fd5b60006112db82610fa7565b91506112e683610fa7565b92508282019050808211156112fe576112fd6112a1565b5b9291505056fea264697066735822122088f1b695d22eb7be300dbd9e0758b1076794fc79f765c16ff2b6312fc5a366e864736f6c634300081c0033",
  "linkReferences": {},
  "deployedLinkReferences": {}
}