{
  "_format": "hh-sol-artifact-1",
  "contractName": "ContentMediaToken",
  "sourceName": "contracts/token.sol",
  "abi": [
    {
      "inputs": [],
      "stateMutability": "nonpayable",
      "type": "constructor"
    },
    {
      "inputs": [],
      "name": "AccessControlBadConfirmation",
      "type": "error"
    },
    {
      "inputs": [
        {
          "internalType": "address",
          "name": "account",
          "type": "address"
        },
        {
          "internalType": "bytes32",
          "name": "neededRole",
          "type": "bytes32"
        }
      ],
      "name": "AccessControlUnauthorizedAccount",
      "type": "error"
    },
    {
      "inputs": [
        {
          "internalType": "address",
          "name": "spender",
          "type": "address"
        },
        {
          "internalType": "uint256",
          "name": "allowance",
          "type": "uint256"
        },
        {
          "internalType": "uint256",
          "name": "needed",
          "type": "uint256"
        }
      ],
      "name": "ERC20InsufficientAllowance",
      "type": "error"
    },
    {
      "inputs": [
        {
          "internalType": "address",
          "name": "sender",
          "type": "address"
        },
        {
          "internalType": "uint256",
          "name": "balance",
          "type": "uint256"
        },
        {
          "internalType": "uint256",
          "name": "needed",
          "type": "uint256"
        }
      ],
      "name": "ERC20InsufficientBalance",
      "type": "error"
    },
    {
      "inputs": [
        {
          "internalType": "address",
          "name": "approver",
          "type": "address"
        }
      ],
      "name": "ERC20InvalidApprover",
      "type": "error"
    },
    {
      "inputs": [
        {
          "internalType": "address",
          "name": "receiver",
          "type": "address"
        }
      ],
      "name": "ERC20InvalidReceiver",
      "type": "error"
    },
    {
      "inputs": [
        {
          "internalType": "address",
          "name": "sender",
          "type": "address"
        }
      ],
      "name": "ERC20InvalidSender",
      "type": "error"
    },
    {
      "inputs": [
        {
          "internalType": "address",
          "name": "spender",
          "type": "address"
        }
      ],
      "name": "ERC20InvalidSpender",
      "type": "error"
    },
    {
      "anonymous": false,
      "inputs": [
        {
          "indexed": true,
          "internalType": "address",
          "name": "owner",
          "type": "address"
        },
        {
          "indexed": true,
          "internalType": "address",
          "name": "spender",
          "type": "address"
        },
        {
          "indexed": false,
          "internalType": "uint256",
          "name": "value",
          "type": "uint256"
        }
      ],
      "name": "Approval",
      "type": "event"
    },
    {
      "anonymous": false,
      "inputs": [
        {
          "indexed": true,
          "internalType": "bytes32",
          "name": "role",
          "type": "bytes32"
        },
        {
          "indexed": true,
          "internalType": "bytes32",
          "name": "previousAdminRole",
          "type": "bytes32"
        },
        {
          "indexed": true,
          "internalType": "bytes32",
          "name": "newAdminRole",
          "type": "bytes32"
        }
      ],
      "name": "RoleAdminChanged",
      "type": "event"
    },
    {
      "anonymous": false,
      "inputs": [
        {
          "indexed": true,
          "internalType": "bytes32",
          "name": "role",
          "type": "bytes32"
        },
        {
          "indexed": true,
          "internalType": "address",
          "name": "account",
          "type": "address"
        },
        {
          "indexed": true,
          "internalType": "address",
          "name": "sender",
          "type": "address"
        }
      ],
      "name": "RoleGranted",
      "type": "event"
    },
    {
      "anonymous": false,
      "inputs": [
        {
          "indexed": true,
          "internalType": "bytes32",
          "name": "role",
          "type": "bytes32"
        },
        {
          "indexed": true,
          "internalType": "address",
          "name": "account",
          "type": "address"
        },
        {
          "indexed": true,
          "internalType": "address",
          "name": "sender",
          "type": "address"
        }
      ],
      "name": "RoleRevoked",
      "type": "event"
    },
    {
      "anonymous": false,
      "inputs": [
        {
          "indexed": true,
          "internalType": "address",
          "name": "from",
          "type": "address"
        },
        {
          "indexed": true,
          "internalType": "address",
          "name": "to",
          "type": "address"
        },
        {
          "indexed": false,
          "internalType": "uint256",
          "name": "value",
          "type": "uint256"
        }
      ],
      "name": "Transfer",
      "type": "event"
    },
    {
      "inputs": [],
      "name": "DAILY_MINT_AMOUNT",
      "outputs": [
        {
          "internalType": "uint256",
          "name": "",
          "type": "uint256"
        }
      ],
      "stateMutability": "view",
      "type": "function"
    },
    {
      "inputs": [],
      "name": "DEFAULT_ADMIN_ROLE",
      "outputs": [
        {
          "internalType": "bytes32",
          "name": "",
          "type": "bytes32"
        }
      ],
      "stateMutability": "view",
      "type": "function"
    },
    {
      "inputs": [],
      "name": "INITIAL_SUPPLY",
      "outputs": [
        {
          "internalType": "uint256",
          "name": "",
          "type": "uint256"
        }
      ],
      "stateMutability": "view",
      "type": "function"
    },
    {
      "inputs": [],
      "name": "SETTLEMENT_ROLE",
      "outputs": [
        {
          "internalType": "bytes32",
          "name": "",
          "type": "bytes32"
        }
      ],
      "stateMutability": "view",
      "type": "function"
    },
    {
      "inputs": [
        {
          "internalType": "address",
          "name": "owner",
          "type": "address"
        },
        {
          "internalType": "address",
          "name": "spender",
          "type": "address"
        }
      ],
      "name": "allowance",
      "outputs": [
        {
          "internalType": "uint256",
          "name": "",
          "type": "uint256"
        }
      ],
      "stateMutability": "view",
      "type": "function"
    },
    {
      "inputs": [
        {
          "internalType": "address",
          "name": "spender",
          "type": "address"
        },
        {
          "internalType": "uint256",
          "name": "value",
          "type": "uint256"
        }
      ],
      "name": "approve",
      "outputs": [
        {
          "internalType": "bool",
          "name": "",
          "type": "bool"
        }
      ],
      "stateMutability": "nonpayable",
      "type": "function"
    },
    {
      "inputs": [
        {
          "internalType": "address",
          "name": "account",
          "type": "address"
        }
      ],
      "name": "balanceOf",
      "outputs": [
        {
          "internalType": "uint256",
          "name": "",
          "type": "uint256"
        }
      ],
      "stateMutability": "view",
      "type": "function"
    },
    {
      "inputs": [],
      "name": "decimals",
      "outputs": [
        {
          "internalType": "uint8",
          "name": "",
          "type": "uint8"
        }
      ],
      "stateMutability": "view",
      "type": "function"
    },
    {
      "inputs": [
        {
          "internalType": "address",
          "name": "to",
          "type": "address"
        },
        {
          "internalType": "uint256",
          "name": "amount",
          "type": "uint256"
        }
      ],
      "name": "distribute",
      "outputs": [],
      "stateMutability": "nonpayable",
      "type": "function"
    },
    {
      "inputs": [
        {
          "internalType": "bytes32",
          "name": "role",
          "type": "bytes32"
        }
      ],
      "name": "getRoleAdmin",
      "outputs": [
        {
          "internalType": "bytes32",
          "name": "",
          "type": "bytes32"
        }
      ],
      "stateMutability": "view",
      "type": "function"
    },
    {
      "inputs": [
        {
          "internalType": "bytes32",
          "name": "role",
          "type": "bytes32"
        },
        {
          "internalType": "address",
          "name": "account",
          "type": "address"
        }
      ],
      "name": "grantRole",
      "outputs": [],
      "stateMutability": "nonpayable",
      "type": "function"
    },
    {
      "inputs": [
        {
          "internalType": "bytes32",
          "name": "role",
          "type": "bytes32"
        },
        {
          "internalType": "address",
          "name": "account",
          "type": "address"
        }
      ],
      "name": "hasRole",
      "outputs": [
        {
          "internalType": "bool",
          "name": "",
          "type": "bool"
        }
      ],
      "stateMutability": "view",
      "type": "function"
    },
    {
      "inputs": [],
      "name": "mintDailyRewards",
      "outputs": [],
      "stateMutability": "nonpayable",
      "type": "function"
    },
    {
      "inputs": [],
      "name": "name",
      "outputs": [
        {
          "internalType": "string",
          "name": "",
          "type": "string"
        }
      ],
      "stateMutability": "view",
      "type": "function"
    },
    {
      "inputs": [
        {
          "internalType": "bytes32",
          "name": "role",
          "type": "bytes32"
        },
        {
          "internalType": "address",
          "name": "callerConfirmation",
          "type": "address"
        }
      ],
      "name": "renounceRole",
      "outputs": [],
      "stateMutability": "nonpayable",
      "type": "function"
    },
    {
      "inputs": [
        {
          "internalType": "bytes32",
          "name": "role",
          "type": "bytes32"
        },
        {
          "internalType": "address",
          "name": "account",
          "type": "address"
        }
      ],
      "name": "revokeRole",
      "outputs": [],
      "stateMutability": "nonpayable",
      "type": "function"
    },
    {
      "inputs": [
        {
          "internalType": "address",
          "name": "_settlementContract",
          "type": "address"
        }
      ],
      "name": "setSettlementContract",
      "outputs": [],
      "stateMutability": "nonpayable",
      "type": "function"
    },
    {
      "inputs": [],
      "name": "settlementContract",
      "outputs": [
        {
          "internalType": "address",
          "name": "",
          "type": "address"
        }
      ],
      "stateMutability": "view",
      "type": "function"
    },
    {
      "inputs": [
        {
          "internalType": "bytes4",
          "name": "interfaceId",
          "type": "bytes4"
        }
      ],
      "name": "supportsInterface",
      "outputs": [
        {
          "internalType": "bool",
          "name": "",
          "type": "bool"
        }
      ],
      "stateMutability": "view",
      "type": "function"
    },
    {
      "inputs": [],
      "name": "symbol",
      "outputs": [
        {
          "internalType": "string",
          "name": "",
          "type": "string"
        }
      ],
      "stateMutability": "view",
      "type": "function"
    },
    {
      "inputs": [],
      "name": "totalSupply",
      "outputs": [
        {
          "internalType": "uint256",
          "name": "",
          "type": "uint256"
        }
      ],
      "stateMutability": "view",
      "type": "function"
    },
    {
      "inputs": [
        {
          "internalType": "address",
          "name": "to",
          "type": "address"
        },
        {
          "internalType": "uint256",
          "name": "value",
          "type": "uint256"
        }
      ],
      "name": "transfer",
      "outputs": [
        {
          "internalType": "bool",
          "name": "",
          "type": "bool"
        }
      ],
      "stateMutability": "nonpayable",
      "type": "function"
    },
    {
      "inputs": [
        {
          "internalType": "address",
          "name": "from",
          "type": "address"
        },
        {
          "internalType": "address",
          "name": "to",
          "type": "address"
        },
        {
          "internalType": "uint256",
          "name": "value",
          "type": "uint256"
        }
      ],
      "name": "transferFrom",
      "outputs": [
        {
          "internalType": "bool",
          "name": "",
          "type": "bool"
        }
      ],
      "stateMutability": "nonpayable",
      "type": "function"
    }
  ],
  "bytecode": "0x60a060405234801561001057600080fd5b506040518060400160405280600d81526020017f4375726174654149546f6b656e000000000000000000000000000000000000008152506040518060400160405280600381526020017f4341540000000000000000000000000000000000000000000000000000000000815250816003908161008c91906107cb565b50806004908161009c91906107cb565b5050506100bf336002633b9aca006100b491906108fb565b61015d60201b60201c565b6100df306002633b9aca006100d491906108fb565b61015d60201b60201c565b3373ffffffffffffffffffffffffffffffffffffffff1660808173ffffffffffffffffffffffffffffffffffffffff16815250506101437f300f9ae985dc711960f7a4d1dd013f9c19ecf40bff149522ab7523b2187a3846336101e560201b60201c565b506101576000801b336101e560201b60201c565b50610a1d565b600073ffffffffffffffffffffffffffffffffffffffff168273ffffffffffffffffffffffffffffffffffffffff16036101cf5760006040517fec442f050000000000000000000000000000000000000000000000000000000081526004016101c6919061096d565b60405180910390fd5b6101e1600083836102e360201b60201c565b5050565b60006101f7838361050860201b60201c565b6102d85760016005600085815260200190815260200160002060000160008473ffffffffffffffffffffffffffffffffffffffff1673ffffffffffffffffffffffffffffffffffffffff16815260200190815260200160002060006101000a81548160ff02191690831515021790555061027561057360201b60201c565b73ffffffffffffffffffffffffffffffffffffffff168273ffffffffffffffffffffffffffffffffffffffff16847f2f8788117e7eff1d82e926ec794901d17c78024a50270940304540a733656f0d60405160405180910390a4600190506102dd565b600090505b92915050565b600073ffffffffffffffffffffffffffffffffffffffff168373ffffffffffffffffffffffffffffffffffffffff16036103355780600260008282546103299190610988565b92505081905550610408565b60008060008573ffffffffffffffffffffffffffffffffffffffff1673ffffffffffffffffffffffffffffffffffffffff168152602001908152602001600020549050818110156103c1578381836040517fe450d38c0000000000000000000000000000000000000000000000000000000081526004016103b8939291906109cb565b60405180910390fd5b8181036000808673ffffffffffffffffffffffffffffffffffffffff1673ffffffffffffffffffffffffffffffffffffffff16815260200190815260200160002081905550505b600073ffffffffffffffffffffffffffffffffffffffff168273ffffffffffffffffffffffffffffffffffffffff1603610451578060026000828254039250508190555061049e565b806000808473ffffffffffffffffffffffffffffffffffffffff1673ffffffffffffffffffffffffffffffffffffffff168152602001908152602001600020600082825401925050819055505b8173ffffffffffffffffffffffffffffffffffffffff168373ffffffffffffffffffffffffffffffffffffffff167fddf252ad1be2c89b69c2b068fc378daa952ba7f163c4a11628f55a4df523b3ef836040516104fb9190610a02565b60405180910390a3505050565b60006005600084815260200190815260200160002060000160008373ffffffffffffffffffffffffffffffffffffffff1673ffffffffffffffffffffffffffffffffffffffff16815260200190815260200160002060009054906101000a900460ff16905092915050565b600033905090565b600081519050919050565b7f4e487b7100000000000000000000000000000000000000000000000000000000600052604160045260246000fd5b7f4e487b7100000000000000000000000000000000000000000000000000000000600052602260045260246000fd5b600060028204905060018216806105fc57607f821691505b60208210810361060f5761060e6105b5565b5b50919050565b60008190508160005260206000209050919050565b60006020601f8301049050919050565b600082821b905092915050565b6000600883026106777fffffffffffffffffffffffffffffffffffffffffffffffffffffffffffffffff8261063a565b610681868361063a565b95508019841693508086168417925050509392505050565b6000819050919050565b6000819050919050565b60006106c86106c36106be84610699565b6106a3565b610699565b9050919050565b6000819050919050565b6106e2836106ad565b6106f66106ee826106cf565b848454610647565b825550505050565b600090565b61070b6106fe565b6107168184846106d9565b505050565b5b8181101561073a5761072f600082610703565b60018101905061071c565b5050565b601f82111561077f5761075081610615565b6107598461062a565b81016020851015610768578190505b61077c6107748561062a565b83018261071b565b50505b505050565b600082821c905092915050565b60006107a260001984600802610784565b1980831691505092915050565b60006107bb8383610791565b9150826002028217905092915050565b6107d48261057b565b67ffffffffffffffff8111156107ed576107ec610586565b5b6107f782546105e4565b61080282828561073e565b600060209050601f8311600181146108355760008415610823578287015190505b61082d85826107af565b865550610895565b601f19841661084386610615565b60005b8281101561086b57848901518255600182019150602085019450602081019050610846565b868310156108885784890151610884601f891682610791565b8355505b6001600288020188555050505b505050505050565b7f4e487b7100000000000000000000000000000000000000000000000000000000600052601260045260246000fd5b7f4e487b7100000000000000000000000000000000000000000000000000000000600052601160045260246000fd5b600061090682610699565b915061091183610699565b9250826109215761092061089d565b5b828204905092915050565b600073ffffffffffffffffffffffffffffffffffffffff82169050919050565b60006109578261092c565b9050919050565b6109678161094c565b82525050565b6000602082019050610982600083018461095e565b92915050565b600061099382610699565b915061099e83610699565b92508282019050808211156109b6576109b56108cc565b5b92915050565b6109c581610699565b82525050565b60006060820190506109e0600083018661095e565b6109ed60208301856109bc565b6109fa60408301846109bc565b949350505050565b6000602082019050610a1760008301846109bc565b92915050565b608051611c44610a386000396000610b420152611c446000f3fe608060405234801561001057600080fd5b506004361061014d5760003560e01c806370a08231116100c3578063a9059cbb1161007c578063a9059cbb146103a2578063ba9cf01d146103d2578063d547741f146103f0578063dd62ed3e1461040c578063ea42418b1461043c578063fb9321081461045a5761014d565b806370a08231146102de57806391d148541461030e57806395aaed921461033e57806395d89b4114610348578063a217fddf14610366578063a5ebc844146103845761014d565b8063248a9ca311610115578063248a9ca31461021e5780632f2ff15d1461024e5780632ff2e9dc1461026a578063313ce5671461028857806336568abe146102a65780633719fd05146102c25761014d565b806301ffc9a71461015257806306fdde0314610182578063095ea7b3146101a057806318160ddd146101d057806323b872dd146101ee575b600080fd5b61016c60048036038101906101679190611514565b610476565b604051610179919061155c565b60405180910390f35b61018a6104f0565b6040516101979190611607565b60405180910390f35b6101ba60048036038101906101b591906116bd565b610582565b6040516101c7919061155c565b60405180910390f35b6101d86105a5565b6040516101e5919061170c565b60405180910390f35b61020860048036038101906102039190611727565b6105af565b604051610215919061155c565b60405180910390f35b610238600480360381019061023391906117b0565b6105de565b60405161024591906117ec565b60405180910390f35b61026860048036038101906102639190611807565b6105fe565b005b61027261066f565b60405161027f919061170c565b60405180910390f35b610290610677565b60405161029d9190611863565b60405180910390f35b6102c060048036038101906102bb9190611807565b610680565b005b6102dc60048036038101906102d7919061187e565b6106fb565b005b6102f860048036038101906102f3919061187e565b610849565b604051610305919061170c565b60405180910390f35b61032860048036038101906103239190611807565b610891565b604051610335919061155c565b60405180910390f35b6103466108fc565b005b610350610936565b60405161035d9190611607565b60405180910390f35b61036e6109c8565b60405161037b91906117ec565b60405180910390f35b61038c6109cf565b604051610399919061170c565b60405180910390f35b6103bc60048036038101906103b791906116bd565b6109d6565b6040516103c9919061155c565b60405180910390f35b6103da6109f9565b6040516103e791906117ec565b60405180910390f35b61040a60048036038101906104059190611807565b610a1d565b005b610426600480360381019061042191906118ab565b610ab9565b604051610433919061170c565b60405180910390f35b610444610b40565b60405161045191906118fa565b60405180910390f35b610474600480360381019061046f91906116bd565b610b64565b005b60007f7965db0b000000000000000000000000000000000000000000000000000000007bffffffffffffffffffffffffffffffffffffffffffffffffffffffff1916827bffffffffffffffffffffffffffffffffffffffffffffffffffffffff191614806104e957506104e882610b9e565b5b9050919050565b6060600380546104ff90611944565b80601f016020809104026020016040519081016040528092919081815260200182805461052b90611944565b80156105785780601f1061054d57610100808354040283529160200191610578565b820191906000526020600020905b81548152906001019060200180831161055b57829003601f168201915b5050505050905090565b60008061058d610c08565b905061059a818585610c10565b600191505092915050565b6000600254905090565b6000806105ba610c08565b90506105c7858285610c22565b6105d2858585610cb7565b60019150509392505050565b600060056000838152602001908152602001600020600101549050919050565b610607826105de565b61061081610dab565b600660009054906101000a900460ff1615610660576040517f08c379a0000000000000000000000000000000000000000000000000000000008152600401610657906119c1565b60405180910390fd5b61066a8383610dbf565b505050565b633b9aca0081565b60006012905090565b610688610c08565b73ffffffffffffffffffffffffffffffffffffffff168173ffffffffffffffffffffffffffffffffffffffff16146106ec576040517f6697b23200000000000000000000000000000000000000000000000000000000815260040160405180910390fd5b6106f68282610de1565b505050565b6000801b61070881610dab565b600660009054906101000a900460ff1615610758576040517f08c379a000000000000000000000000000000000000000000000000000000000815260040161074f90611a2d565b60405180910390fd5b600073ffffffffffffffffffffffffffffffffffffffff168273ffffffffffffffffffffffffffffffffffffffff16036107c7576040517f08c379a00000000000000000000000000000000000000000000000000000000081526004016107be90611a99565b60405180910390fd5b6107f17f300f9ae985dc711960f7a4d1dd013f9c19ecf40bff149522ab7523b2187a384633610de1565b5061081c7f300f9ae985dc711960f7a4d1dd013f9c19ecf40bff149522ab7523b2187a384683610ed4565b506001600660006101000a81548160ff0219169083151502179055506108456000801b33610680565b5050565b60008060008373ffffffffffffffffffffffffffffffffffffffff1673ffffffffffffffffffffffffffffffffffffffff168152602001908152602001600020549050919050565b60006005600084815260200190815260200160002060000160008373ffffffffffffffffffffffffffffffffffffffff1673ffffffffffffffffffffffffffffffffffffffff16815260200190815260200160002060009054906101000a900460ff16905092915050565b7f300f9ae985dc711960f7a4d1dd013f9c19ecf40bff149522ab7523b2187a384661092681610dab565b61093330620186a0610fc6565b50565b60606004805461094590611944565b80601f016020809104026020016040519081016040528092919081815260200182805461097190611944565b80156109be5780601f10610993576101008083540402835291602001916109be565b820191906000526020600020905b8154815290600101906020018083116109a157829003601f168201915b5050505050905090565b6000801b81565b620186a081565b6000806109e1610c08565b90506109ee818585610cb7565b600191505092915050565b7f300f9ae985dc711960f7a4d1dd013f9c19ecf40bff149522ab7523b2187a384681565b610a26826105de565b610a2f81610dab565b600660009054906101000a900460ff161580610a6b57507f300f9ae985dc711960f7a4d1dd013f9c19ecf40bff149522ab7523b2187a38468314155b610aaa576040517f08c379a0000000000000000000000000000000000000000000000000000000008152600401610aa190611b2b565b60405180910390fd5b610ab48383611048565b505050565b6000600160008473ffffffffffffffffffffffffffffffffffffffff1673ffffffffffffffffffffffffffffffffffffffff16815260200190815260200160002060008373ffffffffffffffffffffffffffffffffffffffff1673ffffffffffffffffffffffffffffffffffffffff16815260200190815260200160002054905092915050565b7f000000000000000000000000000000000000000000000000000000000000000081565b7f300f9ae985dc711960f7a4d1dd013f9c19ecf40bff149522ab7523b2187a3846610b8e81610dab565b610b99308484610cb7565b505050565b60007f01ffc9a7000000000000000000000000000000000000000000000000000000007bffffffffffffffffffffffffffffffffffffffffffffffffffffffff1916827bffffffffffffffffffffffffffffffffffffffffffffffffffffffff1916149050919050565b600033905090565b610c1d838383600161106a565b505050565b6000610c2e8484610ab9565b90507fffffffffffffffffffffffffffffffffffffffffffffffffffffffffffffffff811015610cb15781811015610ca1578281836040517ffb8f41b2000000000000000000000000000000000000000000000000000000008152600401610c9893929190611b4b565b60405180910390fd5b610cb08484848403600061106a565b5b50505050565b600073ffffffffffffffffffffffffffffffffffffffff168373ffffffffffffffffffffffffffffffffffffffff1603610d295760006040517f96c6fd1e000000000000000000000000000000000000000000000000000000008152600401610d2091906118fa565b60405180910390fd5b600073ffffffffffffffffffffffffffffffffffffffff168273ffffffffffffffffffffffffffffffffffffffff1603610d9b5760006040517fec442f05000000000000000000000000000000000000000000000000000000008152600401610d9291906118fa565b60405180910390fd5b610da6838383611241565b505050565b610dbc81610db7610c08565b611466565b50565b610dc8826105de565b610dd181610dab565b610ddb8383610ed4565b50505050565b6000610ded8383610891565b15610ec95760006005600085815260200190815260200160002060000160008473ffffffffffffffffffffffffffffffffffffffff1673ffffffffffffffffffffffffffffffffffffffff16815260200190815260200160002060006101000a81548160ff021916908315150217905550610e66610c08565b73ffffffffffffffffffffffffffffffffffffffff168273ffffffffffffffffffffffffffffffffffffffff16847ff6391f5c32d9c69d2a47ea670b442974b53935d1edc7fd64eb21e047a839171b60405160405180910390a460019050610ece565b600090505b92915050565b6000610ee08383610891565b610fbb5760016005600085815260200190815260200160002060000160008473ffffffffffffffffffffffffffffffffffffffff1673ffffffffffffffffffffffffffffffffffffffff16815260200190815260200160002060006101000a81548160ff021916908315150217905550610f58610c08565b73ffffffffffffffffffffffffffffffffffffffff168273ffffffffffffffffffffffffffffffffffffffff16847f2f8788117e7eff1d82e926ec794901d17c78024a50270940304540a733656f0d60405160405180910390a460019050610fc0565b600090505b92915050565b600073ffffffffffffffffffffffffffffffffffffffff168273ffffffffffffffffffffffffffffffffffffffff16036110385760006040517fec442f0500000000000000000000000000000000000000000000000000000000815260040161102f91906118fa565b60405180910390fd5b61104460008383611241565b5050565b611051826105de565b61105a81610dab565b6110648383610de1565b50505050565b600073ffffffffffffffffffffffffffffffffffffffff168473ffffffffffffffffffffffffffffffffffffffff16036110dc5760006040517fe602df050000000000000000000000000000000000000000000000000000000081526004016110d391906118fa565b60405180910390fd5b600073ffffffffffffffffffffffffffffffffffffffff168373ffffffffffffffffffffffffffffffffffffffff160361114e5760006040517f94280d6200000000000000000000000000000000000000000000000000000000815260040161114591906118fa565b60405180910390fd5b81600160008673ffffffffffffffffffffffffffffffffffffffff1673ffffffffffffffffffffffffffffffffffffffff16815260200190815260200160002060008573ffffffffffffffffffffffffffffffffffffffff1673ffffffffffffffffffffffffffffffffffffffff16815260200190815260200160002081905550801561123b578273ffffffffffffffffffffffffffffffffffffffff168473ffffffffffffffffffffffffffffffffffffffff167f8c5be1e5ebec7d5bd14f71427d1e84f3dd0314c0f7b2291e5b200ac8c7c3b92584604051611232919061170c565b60405180910390a35b50505050565b600073ffffffffffffffffffffffffffffffffffffffff168373ffffffffffffffffffffffffffffffffffffffff16036112935780600260008282546112879190611bb1565b92505081905550611366565b60008060008573ffffffffffffffffffffffffffffffffffffffff1673ffffffffffffffffffffffffffffffffffffffff1681526020019081526020016000205490508181101561131f578381836040517fe450d38c00000000000000000000000000000000000000000000000000000000815260040161131693929190611b4b565b60405180910390fd5b8181036000808673ffffffffffffffffffffffffffffffffffffffff1673ffffffffffffffffffffffffffffffffffffffff16815260200190815260200160002081905550505b600073ffffffffffffffffffffffffffffffffffffffff168273ffffffffffffffffffffffffffffffffffffffff16036113af57806002600082825403925050819055506113fc565b806000808473ffffffffffffffffffffffffffffffffffffffff1673ffffffffffffffffffffffffffffffffffffffff168152602001908152602001600020600082825401925050819055505b8173ffffffffffffffffffffffffffffffffffffffff168373ffffffffffffffffffffffffffffffffffffffff167fddf252ad1be2c89b69c2b068fc378daa952ba7f163c4a11628f55a4df523b3ef83604051611459919061170c565b60405180910390a3505050565b6114708282610891565b6114b35780826040517fe2517d3f0000000000000000000000000000000000000000000000000000000081526004016114aa929190611be5565b60405180910390fd5b5050565b600080fd5b60007fffffffff0000000000000000000000000000000000000000000000000000000082169050919050565b6114f1816114bc565b81146114fc57600080fd5b50565b60008135905061150e816114e8565b92915050565b60006020828403121561152a576115296114b7565b5b6000611538848285016114ff565b91505092915050565b60008115159050919050565b61155681611541565b82525050565b6000602082019050611571600083018461154d565b92915050565b600081519050919050565b600082825260208201905092915050565b60005b838110156115b1578082015181840152602081019050611596565b60008484015250505050565b6000601f19601f8301169050919050565b60006115d982611577565b6115e38185611582565b93506115f3818560208601611593565b6115fc816115bd565b840191505092915050565b6000602082019050818103600083015261162181846115ce565b905092915050565b600073ffffffffffffffffffffffffffffffffffffffff82169050919050565b600061165482611629565b9050919050565b61166481611649565b811461166f57600080fd5b50565b6000813590506116818161165b565b92915050565b6000819050919050565b61169a81611687565b81146116a557600080fd5b50565b6000813590506116b781611691565b92915050565b600080604083850312156116d4576116d36114b7565b5b60006116e285828601611672565b92505060206116f3858286016116a8565b9150509250929050565b61170681611687565b82525050565b600060208201905061172160008301846116fd565b92915050565b6000806000606084860312156117405761173f6114b7565b5b600061174e86828701611672565b935050602061175f86828701611672565b9250506040611770868287016116a8565b9150509250925092565b6000819050919050565b61178d8161177a565b811461179857600080fd5b50565b6000813590506117aa81611784565b92915050565b6000602082840312156117c6576117c56114b7565b5b60006117d48482850161179b565b91505092915050565b6117e68161177a565b82525050565b600060208201905061180160008301846117dd565b92915050565b6000806040838503121561181e5761181d6114b7565b5b600061182c8582860161179b565b925050602061183d85828601611672565b9150509250929050565b600060ff82169050919050565b61185d81611847565b82525050565b60006020820190506118786000830184611854565b92915050565b600060208284031215611894576118936114b7565b5b60006118a284828501611672565b91505092915050565b600080604083850312156118c2576118c16114b7565b5b60006118d085828601611672565b92505060206118e185828601611672565b9150509250929050565b6118f481611649565b82525050565b600060208201905061190f60008301846118eb565b92915050565b7f4e487b7100000000000000000000000000000000000000000000000000000000600052602260045260246000fd5b6000600282049050600182168061195c57607f821691505b60208210810361196f5761196e611915565b5b50919050565b7f526f6c652061737369676e6d656e747320617265206c6f636b65640000000000600082015250565b60006119ab601b83611582565b91506119b682611975565b602082019050919050565b600060208201905081810360008301526119da8161199e565b9050919050565b7f536574746c656d656e7420726f6c6520616c72656164792061737369676e6564600082015250565b6000611a17602083611582565b9150611a22826119e1565b602082019050919050565b60006020820190508181036000830152611a4681611a0a565b9050919050565b7f496e76616c696420736574746c656d656e742061646472657373000000000000600082015250565b6000611a83601a83611582565b9150611a8e82611a4d565b602082019050919050565b60006020820190508181036000830152611ab281611a76565b9050919050565b7f534554544c454d454e545f524f4c452063616e6e6f74206265207265766f6b6560008201527f6420616674657220736574757000000000000000000000000000000000000000602082015250565b6000611b15602d83611582565b9150611b2082611ab9565b604082019050919050565b60006020820190508181036000830152611b4481611b08565b9050919050565b6000606082019050611b6060008301866118eb565b611b6d60208301856116fd565b611b7a60408301846116fd565b949350505050565b7f4e487b7100000000000000000000000000000000000000000000000000000000600052601160045260246000fd5b6000611bbc82611687565b9150611bc783611687565b9250828201905080821115611bdf57611bde611b82565b5b92915050565b6000604082019050611bfa60008301856118eb565b611c0760208301846117dd565b939250505056fea26469706673582212205355572fcc6669f3b4735d6f91014b355197975302c623fddbb044be304040aa64736f6c634300081c0033",
  "linkReferences": {},
  "deployedLinkReferences": {}
}