{
  "_format": "hh-sol-artifact-1",
  "contractName": "ContentMediaVoting",
  "sourceName": "contracts/post.sol",
  "abi": [
    {
      "inputs": [
        {
          "internalType": "address",
          "name": "tokenAddress",
          "type": "address"
        }
      ],
      "stateMutability": "nonpayable",
      "type": "constructor"
    },
    {
      "inputs": [],
      "name": "AccessControlBadConfirmation",
      "type": "error"
    },
    {
      "inputs": [
        {
          "internalType": "address",
          "name": "account",
          "type": "address"
        },
        {
          "internalType": "bytes32",
          "name": "neededRole",
          "type": "bytes32"
        }
      ],
      "name": "AccessControlUnauthorizedAccount",
      "type": "error"
    },
    {
      "anonymous": false,
      "inputs": [
        {
          "indexed": false,
          "internalType": "uint256",
          "name": "id",
          "type": "uint256"
        },
        {
          "indexed": false,
          "internalType": "address",
          "name": "author",
          "type": "address"
        },
        {
          "indexed": false,
          "internalType": "string",
          "name": "contentHash",
          "type": "string"
        },
        {
          "indexed": false,
          "internalType": "string",
          "name": "tags",
          "type": "string"
        }
      ],
      "name": "PostCreated",
      "type": "event"
    },
    {
      "anonymous": false,
      "inputs": [
        {
          "indexed": true,
          "internalType": "bytes32",
          "name": "role",
          "type": "bytes32"
        },
        {
          "indexed": true,
          "internalType": "bytes32",
          "name": "previousAdminRole",
          "type": "bytes32"
        },
        {
          "indexed": true,
          "internalType": "bytes32",
          "name": "newAdminRole",
          "type": "bytes32"
        }
      ],
      "name": "RoleAdminChanged",
      "type": "event"
    },
    {
      "anonymous": false,
      "inputs": [
        {
          "indexed": true,
          "internalType": "bytes32",
          "name": "role",
          "type": "bytes32"
        },
        {
          "indexed": true,
          "internalType": "address",
          "name": "account",
          "type": "address"
        },
        {
          "indexed": true,
          "internalType": "address",
          "name": "sender",
          "type": "address"
        }
      ],
      "name": "RoleGranted",
      "type": "event"
    },
    {
      "anonymous": false,
      "inputs": [
        {
          "indexed": true,
          "internalType": "bytes32",
          "name": "role",
          "type": "bytes32"
        },
        {
          "indexed": true,
          "internalType": "address",
          "name": "account",
          "type": "address"
        },
        {
          "indexed": true,
          "internalType": "address",
          "name": "sender",
          "type": "address"
        }
      ],
      "name": "RoleRevoked",
      "type": "event"
    },
    {
      "anonymous": false,
      "inputs": [
        {
          "indexed": false,
          "internalType": "uint256",
          "name": "postId",
          "type": "uint256"
        },
        {
          "indexed": false,
          "internalType": "address",
          "name": "voter",
          "type": "address"
        },
        {
          "indexed": false,
          "internalType": "uint256",
          "name": "amount",
          "type": "uint256"
        }
      ],
      "name": "Voted",
      "type": "event"
    },
    {
      "inputs": [],
      "name": "AI_AGENT_ROLE",
      "outputs": [
        {
          "internalType": "bytes32",
          "name": "",
          "type": "bytes32"
        }
      ],
      "stateMutability": "view",
      "type": "function"
    },
    {
      "inputs": [],
      "name": "DEFAULT_ADMIN_ROLE",
      "outputs": [
        {
          "internalType": "bytes32",
          "name": "",
          "type": "bytes32"
        }
      ],
      "stateMutability": "view",
      "type": "function"
    },
    {
      "inputs": [],
      "name": "VOTES_PER_DAY_MULTIPLIER",
      "outputs": [
        {
          "internalType": "uint256",
          "name": "",
          "type": "uint256"
        }
      ],
      "stateMutability": "view",
      "type": "function"
    },
    {
      "inputs": [
        {
          "internalType": "uint256",
          "name": "postId",
          "type": "uint256"
        },
        {
          "internalType": "uint256",
          "name": "amount",
          "type": "uint256"
        }
      ],
      "name": "aiVote",
      "outputs": [],
      "stateMutability": "nonpayable",
      "type": "function"
    },
    {
      "inputs": [
        {
          "internalType": "string",
          "name": "contentHash",
          "type": "string"
        },
        {
          "internalType": "string",
          "name": "tags",
          "type": "string"
        }
      ],
      "name": "createPost",
      "outputs": [],
      "stateMutability": "nonpayable",
      "type": "function"
    },
    {
      "inputs": [
        {
          "internalType": "address",
          "name": "",
          "type": "address"
        },
        {
          "internalType": "uint256",
          "name": "",
          "type": "uint256"
        }
      ],
      "name": "dailyAuthorVotes",
      "outputs": [
        {
          "internalType": "uint256",
          "name": "",
          "type": "uint256"
        }
      ],
      "stateMutability": "view",
      "type": "function"
    },
    {
      "inputs": [
        {
          "internalType": "uint256",
          "name": "",
          "type": "uint256"
        },
        {
          "internalType": "uint256",
          "name": "",
          "type": "uint256"
        }
      ],
      "name": "dailyPostVotes",
      "outputs": [
        {
          "internalType": "uint256",
          "name": "",
          "type": "uint256"
        }
      ],
      "stateMutability": "view",
      "type": "function"
    },
    {
      "inputs": [
        {
          "internalType": "uint256",
          "name": "",
          "type": "uint256"
        }
      ],
      "name": "dailyVoteTotals",
      "outputs": [
        {
          "internalType": "uint256",
          "name": "",
          "type": "uint256"
        }
      ],
      "stateMutability": "view",
      "type": "function"
    },
    {
      "inputs": [
        {
          "internalType": "uint256",
          "name": "day",
          "type": "uint256"
        },
        {
          "internalType": "address",
          "name": "author",
          "type": "address"
        }
      ],
      "name": "getAuthorVotes",
      "outputs": [
        {
          "internalType": "uint256",
          "name": "",
          "type": "uint256"
        }
      ],
      "stateMutability": "view",
      "type": "function"
    },
    {
      "inputs": [
        {
          "internalType": "uint256",
          "name": "day",
          "type": "uint256"
        }
      ],
      "name": "getDailyTotalVotes",
      "outputs": [
        {
          "internalType": "uint256",
          "name": "",
          "type": "uint256"
        }
      ],
      "stateMutability": "view",
      "type": "function"
    },
    {
      "inputs": [
        {
          "internalType": "uint256",
          "name": "postId",
          "type": "uint256"
        }
      ],
      "name": "getPostScore",
      "outputs": [
        {
          "internalType": "uint256",
          "name": "",
          "type": "uint256"
        }
      ],
      "stateMutability": "view",
      "type": "function"
    },
    {
      "inputs": [
        {
          "internalType": "bytes32",
          "name": "role",
          "type": "bytes32"
        }
      ],
      "name": "getRoleAdmin",
      "outputs": [
        {
          "internalType": "bytes32",
          "name": "",
          "type": "bytes32"
        }
      ],
      "stateMutability": "view",
      "type": "function"
    },
    {
      "inputs": [],
      "name": "getTotalVotes",
      "outputs": [
        {
          "internalType": "uint256",
          "name": "",
          "type": "uint256"
        }
      ],
      "stateMutability": "view",
      "type": "function"
    },
    {
      "inputs": [
        {
          "internalType": "address",
          "name": "user",
          "type": "address"
        }
      ],
      "name": "getUserVoteDays",
      "outputs": [
        {
          "internalType": "uint256[]",
          "name": "",
          "type": "uint256[]"
        }
      ],
      "stateMutability": "view",
      "type": "function"
    },
    {
      "inputs": [
        {
          "internalType": "bytes32",
          "name": "role",
          "type": "bytes32"
        },
        {
          "internalType": "address",
          "name": "account",
          "type": "address"
        }
      ],
      "name": "grantRole",
      "outputs": [],
      "stateMutability": "nonpayable",
      "type": "function"
    },
    {
      "inputs": [
        {
          "internalType": "bytes32",
          "name": "role",
          "type": "bytes32"
        },
        {
          "internalType": "address",
          "name": "account",
          "type": "address"
        }
      ],
      "name": "hasRole",
      "outputs": [
        {
          "internalType": "bool",
          "name": "",
          "type": "bool"
        }
      ],
      "stateMutability": "view",
      "type": "function"
    },
    {
      "inputs": [
        {
          "internalType": "address",
          "name": "",
          "type": "address"
        }
      ],
      "name": "lastVoteResetTime",
      "outputs": [
        {
          "internalType": "uint256",
          "name": "",
          "type": "uint256"
        }
      ],
      "stateMutability": "view",
      "type": "function"
    },
    {
      "inputs": [],
      "name": "postCounter",
      "outputs": [
        {
          "internalType": "uint256",
          "name": "",
          "type": "uint256"
        }
      ],
      "stateMutability": "view",
      "type": "function"
    },
    {
      "inputs": [
        {
          "internalType": "uint256",
          "name": "",
          "type": "uint256"
        }
      ],
      "name": "posts",
      "outputs": [
        {
          "internalType": "uint256",
          "name": "id",
          "type": "uint256"
        },
        {
          "internalType": "address",
          "name": "author",
          "type": "address"
        },
        {
          "internalType": "string",
          "name": "contentHash",
          "type": "string"
        },
        {
          "internalType": "uint256",
          "name": "totalScore",
          "type": "uint256"
        },
        {
          "internalType": "uint256",
          "name": "claimedScore",
          "type": "uint256"
        },
        {
          "internalType": "uint256",
          "name": "createdAt",
          "type": "uint256"
        },
        {
          "internalType": "string",
          "name": "tags",
          "type": "string"
        },
        {
          "internalType": "bool",
          "name": "newVote",
          "type": "bool"
        },
        {
          "internalType": "bool",
          "name": "aiVoted",
          "type": "bool"
        }
      ],
      "stateMutability": "view",
      "type": "function"
    },
    {
      "inputs": [
        {
          "internalType": "bytes32",
          "name": "role",
          "type": "bytes32"
        },
        {
          "internalType": "address",
          "name": "callerConfirmation",
          "type": "address"
        }
      ],
      "name": "renounceRole",
      "outputs": [],
      "stateMutability": "nonpayable",
      "type": "function"
    },
    {
      "inputs": [
        {
          "internalType": "bytes32",
          "name": "role",
          "type": "bytes32"
        },
        {
          "internalType": "address",
          "name": "account",
          "type": "address"
        }
      ],
      "name": "revokeRole",
      "outputs": [],
      "stateMutability": "nonpayable",
      "type": "function"
    },
    {
      "inputs": [
        {
          "internalType": "bytes4",
          "name": "interfaceId",
          "type": "bytes4"
        }
      ],
      "name": "supportsInterface",
      "outputs": [
        {
          "internalType": "bool",
          "name": "",
          "type": "bool"
        }
      ],
      "stateMutability": "view",
      "type": "function"
    },
    {
      "inputs": [],
      "name": "token",
      "outputs": [
        {
          "internalType": "contract IContentMediaToken",
          "name": "",
          "type": "address"
        }
      ],
      "stateMutability": "view",
      "type": "function"
    },
    {
      "inputs": [
        {
          "internalType": "address",
          "name": "",
          "type": "address"
        },
        {
          "internalType": "uint256",
          "name": "",
          "type": "uint256"
        }
      ],
      "name": "userActiveDays",
      "outputs": [
        {
          "internalType": "uint256",
          "name": "",
          "type": "uint256"
        }
      ],
      "stateMutability": "view",
      "type": "function"
    },
    {
      "inputs": [
        {
          "internalType": "uint256",
          "name": "postId",
          "type": "uint256"
        },
        {
          "internalType": "uint256",
          "name": "amount",
          "type": "uint256"
        }
      ],
      "name": "vote",
      "outputs": [],
      "stateMutability": "nonpayable",
      "type": "function"
    },
    {
      "inputs": [
        {
          "internalType": "address",
          "name": "",
          "type": "address"
        }
      ],
      "name": "votesUsedToday",
      "outputs": [
        {
          "internalType": "uint256",
          "name": "",
          "type": "uint256"
        }
      ],
      "stateMutability": "view",
      "type": "function"
    }
  ],
  "bytecode": "0x608060405234801561001057600080fd5b50604051612b9b380380612b9b8339818101604052810190610032919061025f565b80600160006101000a81548173ffffffffffffffffffffffffffffffffffffffff021916908373ffffffffffffffffffffffffffffffffffffffff1602179055506100866000801b3361008d60201b60201c565b505061028c565b600061009f838361018a60201b60201c565b61017f57600160008085815260200190815260200160002060000160008473ffffffffffffffffffffffffffffffffffffffff1673ffffffffffffffffffffffffffffffffffffffff16815260200190815260200160002060006101000a81548160ff02191690831515021790555061011c6101f460201b60201c565b73ffffffffffffffffffffffffffffffffffffffff168273ffffffffffffffffffffffffffffffffffffffff16847f2f8788117e7eff1d82e926ec794901d17c78024a50270940304540a733656f0d60405160405180910390a460019050610184565b600090505b92915050565b600080600084815260200190815260200160002060000160008373ffffffffffffffffffffffffffffffffffffffff1673ffffffffffffffffffffffffffffffffffffffff16815260200190815260200160002060009054906101000a900460ff16905092915050565b600033905090565b600080fd5b600073ffffffffffffffffffffffffffffffffffffffff82169050919050565b600061022c82610201565b9050919050565b61023c81610221565b811461024757600080fd5b50565b60008151905061025981610233565b92915050565b600060208284031215610275576102746101fc565b5b60006102838482850161024a565b91505092915050565b6129008061029b6000396000f3fe608060405234801561001057600080fd5b506004361061018e5760003560e01c80636ebe8f99116100de578063b6b7308111610097578063df99b33611610071578063df99b3361461050f578063f2fb16db1461052d578063f8a4e6e21461055d578063fc0c546a146105795761018e565b8063b6b7308114610493578063cb436d3f146104c3578063d547741f146104f35761018e565b80636ebe8f99146103ab57806391d14854146103db5780639a0e7d661461040b5780639d4d3db714610429578063a217fddf14610459578063b384abef146104775761018e565b8063248a9ca31161014b5780632f2ff15d116101255780632f2ff15d1461032757806336568abe14610343578063392338f51461035f5780635a26f5b31461037b5761018e565b8063248a9ca3146102a957806325b8e7eb146102d957806329ddf49c146102f75761018e565b806301ffc9a7146101935780630706e5bd146101c357806309b3d75e146101f35780630b1e7f8314610211578063173573e8146102495780631d148f5514610279575b600080fd5b6101ad60048036038101906101a89190611a66565b610597565b6040516101ba9190611aae565b60405180910390f35b6101dd60048036038101906101d89190611b27565b610611565b6040516101ea9190611c1c565b60405180910390f35b6101fb6106a8565b6040516102089190611c4d565b60405180910390f35b61022b60048036038101906102269190611c94565b6106ae565b60405161024099989796959493929190611d60565b60405180910390f35b610263600480360381019061025e9190611c94565b610846565b6040516102709190611c4d565b60405180910390f35b610293600480360381019061028e9190611dfb565b61085e565b6040516102a09190611c4d565b60405180910390f35b6102c360048036038101906102be9190611e71565b61088f565b6040516102d09190611ead565b60405180910390f35b6102e16108ae565b6040516102ee9190611ead565b60405180910390f35b610311600480360381019061030c9190611c94565b6108d2565b60405161031e9190611c4d565b60405180910390f35b610341600480360381019061033c9190611ec8565b6108ef565b005b61035d60048036038101906103589190611ec8565b610911565b005b61037960048036038101906103749190611f6d565b61098c565b005b61039560048036038101906103909190611c94565b610bc9565b6040516103a29190611c4d565b60405180910390f35b6103c560048036038101906103c09190611b27565b610be9565b6040516103d29190611c4d565b60405180910390f35b6103f560048036038101906103f09190611ec8565b610c01565b6040516104029190611aae565b60405180910390f35b610413610c6b565b6040516104209190611c4d565b60405180910390f35b610443600480360381019061043e9190611dfb565b610c94565b6040516104509190611c4d565b60405180910390f35b610461610cb9565b60405161046e9190611ead565b60405180910390f35b610491600480360381019061048c9190611fee565b610cc0565b005b6104ad60048036038101906104a89190611fee565b61124f565b6040516104ba9190611c4d565b60405180910390f35b6104dd60048036038101906104d8919061202e565b611274565b6040516104ea9190611c4d565b60405180910390f35b61050d60048036038101906105089190611ec8565b6112cf565b005b6105176112f1565b6040516105249190611c4d565b60405180910390f35b61054760048036038101906105429190611b27565b6112f6565b6040516105549190611c4d565b60405180910390f35b61057760048036038101906105729190611fee565b61130e565b005b610581611724565b60405161058e91906120cd565b60405180910390f35b60007f7965db0b000000000000000000000000000000000000000000000000000000007bffffffffffffffffffffffffffffffffffffffffffffffffffffffff1916827bffffffffffffffffffffffffffffffffffffffffffffffffffffffff1916148061060a57506106098261174a565b5b9050919050565b6060600660008373ffffffffffffffffffffffffffffffffffffffff1673ffffffffffffffffffffffffffffffffffffffff16815260200190815260200160002080548060200260200160405190810160405280929190818152602001828054801561069c57602002820191906000526020600020905b815481526020019060010190808311610688575b50505050509050919050565b60025481565b60076020528060005260406000206000915090508060000154908060010160009054906101000a900473ffffffffffffffffffffffffffffffffffffffff16908060020180546106fd90612117565b80601f016020809104026020016040519081016040528092919081815260200182805461072990612117565b80156107765780601f1061074b57610100808354040283529160200191610776565b820191906000526020600020905b81548152906001019060200180831161075957829003601f168201915b50505050509080600301549080600401549080600501549080600601805461079d90612117565b80601f01602080910402602001604051908101604052809291908181526020018280546107c990612117565b80156108165780601f106107eb57610100808354040283529160200191610816565b820191906000526020600020905b8154815290600101906020018083116107f957829003601f168201915b5050505050908060070160009054906101000a900460ff16908060070160019054906101000a900460ff16905089565b60046020528060005260406000206000915090505481565b6006602052816000526040600020818154811061087a57600080fd5b90600052602060002001600091509150505481565b6000806000838152602001908152602001600020600101549050919050565b7ffaa623ff490ff9197b5ad863cd7f72b33e2e131994d09bd7260d7cd680faad7981565b600060046000838152602001908152602001600020549050919050565b6108f88261088f565b610901816117b4565b61090b83836117c8565b50505050565b6109196118b9565b73ffffffffffffffffffffffffffffffffffffffff168173ffffffffffffffffffffffffffffffffffffffff161461097d576040517f6697b23200000000000000000000000000000000000000000000000000000000815260040160405180910390fd5b61098782826118c1565b505050565b6002600081548092919061099f90612177565b919050555060405180610120016040528060025481526020013373ffffffffffffffffffffffffffffffffffffffff16815260200185858080601f016020809104026020016040519081016040528093929190818152602001838380828437600081840152601f19601f820116905080830192505050505050508152602001600081526020016000815260200142815260200183838080601f016020809104026020016040519081016040528093929190818152602001838380828437600081840152601f19601f820116905080830192505050505050508152602001600015158152602001600015158152506007600060025481526020019081526020016000206000820151816000015560208201518160010160006101000a81548173ffffffffffffffffffffffffffffffffffffffff021916908373ffffffffffffffffffffffffffffffffffffffff1602179055506040820151816002019081610b079190612390565b50606082015181600301556080820151816004015560a0820151816005015560c0820151816006019081610b3b9190612390565b5060e08201518160070160006101000a81548160ff0219169083151502179055506101008201518160070160016101000a81548160ff0219169083151502179055509050507f5475621b07408f75d49c828caa5aeacb3a5e98d3497e75730dc184677504401c6002543386868686604051610bbb9695949392919061249e565b60405180910390a150505050565b600060076000838152602001908152602001600020600301549050919050565b60086020528060005260406000206000915090505481565b600080600084815260200190815260200160002060000160008373ffffffffffffffffffffffffffffffffffffffff1673ffffffffffffffffffffffffffffffffffffffff16815260200190815260200160002060009054906101000a900460ff16905092915050565b6000600460006201518042610c809190612524565b815260200190815260200160002054905090565b6005602052816000526040600020602052806000526040600020600091509150505481565b6000801b81565b600254821115610d05576040517f08c379a0000000000000000000000000000000000000000000000000000000008152600401610cfc906125a1565b60405180910390fd5b60008111610d48576040517f08c379a0000000000000000000000000000000000000000000000000000000008152600401610d3f9061260d565b60405180910390fd5b62015180600860003373ffffffffffffffffffffffffffffffffffffffff1673ffffffffffffffffffffffffffffffffffffffff16815260200190815260200160002054610d96919061262d565b4210610e26576000600960003373ffffffffffffffffffffffffffffffffffffffff1673ffffffffffffffffffffffffffffffffffffffff1681526020019081526020016000208190555042600860003373ffffffffffffffffffffffffffffffffffffffff1673ffffffffffffffffffffffffffffffffffffffff168152602001908152602001600020819055505b6000600160009054906101000a900473ffffffffffffffffffffffffffffffffffffffff1673ffffffffffffffffffffffffffffffffffffffff166370a08231336040518263ffffffff1660e01b8152600401610e839190612661565b602060405180830381865afa158015610ea0573d6000803e3d6000fd5b505050506040513d601f19601f82011682018060405250810190610ec49190612691565b6005610ed091906126be565b90508082600960003373ffffffffffffffffffffffffffffffffffffffff1673ffffffffffffffffffffffffffffffffffffffff16815260200190815260200160002054610f1e919061262d565b1115610f5f576040517f08c379a0000000000000000000000000000000000000000000000000000000008152600401610f569061274c565b60405180910390fd5b60006201518042610f709190612524565b9050600060076000868152602001908152602001600020905083816003016000828254610f9d919061262d565b9250508190555060018160070160006101000a81548160ff021916908315150217905550836003600084815260200190815260200160002060008781526020019081526020016000206000828254610ff5919061262d565b925050819055508360046000848152602001908152602001600020600082825461101f919061262d565b9250508190555083600560008360010160009054906101000a900473ffffffffffffffffffffffffffffffffffffffff1673ffffffffffffffffffffffffffffffffffffffff1673ffffffffffffffffffffffffffffffffffffffff168152602001908152602001600020600084815260200190815260200160002060008282546110aa919061262d565b9250508190555083600560008360010160009054906101000a900473ffffffffffffffffffffffffffffffffffffffff1673ffffffffffffffffffffffffffffffffffffffff1673ffffffffffffffffffffffffffffffffffffffff168152602001908152602001600020600084815260200190815260200160002054036111b757600660008260010160009054906101000a900473ffffffffffffffffffffffffffffffffffffffff1673ffffffffffffffffffffffffffffffffffffffff1673ffffffffffffffffffffffffffffffffffffffff1681526020019081526020016000208290806001815401808255809150506001900390600052602060002001600090919091909150555b83600960003373ffffffffffffffffffffffffffffffffffffffff1673ffffffffffffffffffffffffffffffffffffffff1681526020019081526020016000206000828254611206919061262d565b925050819055507f1abe610cf2bf87e57dcc1181fcf5ac0934e843d8344ab9eed6e86c799f62585e8533866040516112409392919061276c565b60405180910390a15050505050565b6003602052816000526040600020602052806000526040600020600091509150505481565b6000600560008373ffffffffffffffffffffffffffffffffffffffff1673ffffffffffffffffffffffffffffffffffffffff168152602001908152602001600020600084815260200190815260200160002054905092915050565b6112d88261088f565b6112e1816117b4565b6112eb83836118c1565b50505050565b600581565b60096020528060005260406000206000915090505481565b7ffaa623ff490ff9197b5ad863cd7f72b33e2e131994d09bd7260d7cd680faad79611338816117b4565b60025483111561137d576040517f08c379a0000000000000000000000000000000000000000000000000000000008152600401611374906125a1565b60405180910390fd5b600082116113c0576040517f08c379a00000000000000000000000000000000000000000000000000000000081526004016113b79061260d565b60405180910390fd5b6007600084815260200190815260200160002060070160019054906101000a900460ff1615611424576040517f08c379a000000000000000000000000000000000000000000000000000000000815260040161141b906127ef565b60405180910390fd5b620151806007600085815260200190815260200160002060050154611449919061262d565b421061148a576040517f08c379a000000000000000000000000000000000000000000000000000000000815260040161148190612881565b60405180910390fd5b6000620151804261149b9190612524565b90506000600760008681526020019081526020016000209050838160030160008282546114c8919061262d565b92505081905550836003600084815260200190815260200160002060008781526020019081526020016000206000828254611503919061262d565b925050819055508360046000848152602001908152602001600020600082825461152d919061262d565b9250508190555083600560008360010160009054906101000a900473ffffffffffffffffffffffffffffffffffffffff1673ffffffffffffffffffffffffffffffffffffffff1673ffffffffffffffffffffffffffffffffffffffff168152602001908152602001600020600084815260200190815260200160002060008282546115b8919061262d565b9250508190555060018160070160016101000a81548160ff02191690831515021790555083600560008360010160009054906101000a900473ffffffffffffffffffffffffffffffffffffffff1673ffffffffffffffffffffffffffffffffffffffff1673ffffffffffffffffffffffffffffffffffffffff168152602001908152602001600020600084815260200190815260200160002054036116e257600660008260010160009054906101000a900473ffffffffffffffffffffffffffffffffffffffff1673ffffffffffffffffffffffffffffffffffffffff1673ffffffffffffffffffffffffffffffffffffffff1681526020019081526020016000208290806001815401808255809150506001900390600052602060002001600090919091909150555b7f1abe610cf2bf87e57dcc1181fcf5ac0934e843d8344ab9eed6e86c799f62585e8533866040516117159392919061276c565b60405180910390a15050505050565b600160009054906101000a900473ffffffffffffffffffffffffffffffffffffffff1681565b60007f01ffc9a7000000000000000000000000000000000000000000000000000000007bffffffffffffffffffffffffffffffffffffffffffffffffffffffff1916827bffffffffffffffffffffffffffffffffffffffffffffffffffffffff1916149050919050565b6117c5816117c06118b9565b6119b3565b50565b60006117d48383610c01565b6118ae57600160008085815260200190815260200160002060000160008473ffffffffffffffffffffffffffffffffffffffff1673ffffffffffffffffffffffffffffffffffffffff16815260200190815260200160002060006101000a81548160ff02191690831515021790555061184b6118b9565b73ffffffffffffffffffffffffffffffffffffffff168273ffffffffffffffffffffffffffffffffffffffff16847f2f8788117e7eff1d82e926ec794901d17c78024a50270940304540a733656f0d60405160405180910390a4600190506118b3565b600090505b92915050565b600033905090565b60006118cd8383610c01565b156119a857600080600085815260200190815260200160002060000160008473ffffffffffffffffffffffffffffffffffffffff1673ffffffffffffffffffffffffffffffffffffffff16815260200190815260200160002060006101000a81548160ff0219169083151502179055506119456118b9565b73ffffffffffffffffffffffffffffffffffffffff168273ffffffffffffffffffffffffffffffffffffffff16847ff6391f5c32d9c69d2a47ea670b442974b53935d1edc7fd64eb21e047a839171b60405160405180910390a4600190506119ad565b600090505b92915050565b6119bd8282610c01565b611a005780826040517fe2517d3f0000000000000000000000000000000000000000000000000000000081526004016119f79291906128a1565b60405180910390fd5b5050565b600080fd5b600080fd5b60007fffffffff0000000000000000000000000000000000000000000000000000000082169050919050565b611a4381611a0e565b8114611a4e57600080fd5b50565b600081359050611a6081611a3a565b92915050565b600060208284031215611a7c57611a7b611a04565b5b6000611a8a84828501611a51565b91505092915050565b60008115159050919050565b611aa881611a93565b82525050565b6000602082019050611ac36000830184611a9f565b92915050565b600073ffffffffffffffffffffffffffffffffffffffff82169050919050565b6000611af482611ac9565b9050919050565b611b0481611ae9565b8114611b0f57600080fd5b50565b600081359050611b2181611afb565b92915050565b600060208284031215611b3d57611b3c611a04565b5b6000611b4b84828501611b12565b91505092915050565b600081519050919050565b600082825260208201905092915050565b6000819050602082019050919050565b6000819050919050565b611b9381611b80565b82525050565b6000611ba58383611b8a565b60208301905092915050565b6000602082019050919050565b6000611bc982611b54565b611bd38185611b5f565b9350611bde83611b70565b8060005b83811015611c0f578151611bf68882611b99565b9750611c0183611bb1565b925050600181019050611be2565b5085935050505092915050565b60006020820190508181036000830152611c368184611bbe565b905092915050565b611c4781611b80565b82525050565b6000602082019050611c626000830184611c3e565b92915050565b611c7181611b80565b8114611c7c57600080fd5b50565b600081359050611c8e81611c68565b92915050565b600060208284031215611caa57611ca9611a04565b5b6000611cb884828501611c7f565b91505092915050565b611cca81611ae9565b82525050565b600081519050919050565b600082825260208201905092915050565b60005b83811015611d0a578082015181840152602081019050611cef565b60008484015250505050565b6000601f19601f8301169050919050565b6000611d3282611cd0565b611d3c8185611cdb565b9350611d4c818560208601611cec565b611d5581611d16565b840191505092915050565b600061012082019050611d76600083018c611c3e565b611d83602083018b611cc1565b8181036040830152611d95818a611d27565b9050611da46060830189611c3e565b611db16080830188611c3e565b611dbe60a0830187611c3e565b81810360c0830152611dd08186611d27565b9050611ddf60e0830185611a9f565b611ded610100830184611a9f565b9a9950505050505050505050565b60008060408385031215611e1257611e11611a04565b5b6000611e2085828601611b12565b9250506020611e3185828601611c7f565b9150509250929050565b6000819050919050565b611e4e81611e3b565b8114611e5957600080fd5b50565b600081359050611e6b81611e45565b92915050565b600060208284031215611e8757611e86611a04565b5b6000611e9584828501611e5c565b91505092915050565b611ea781611e3b565b82525050565b6000602082019050611ec26000830184611e9e565b92915050565b60008060408385031215611edf57611ede611a04565b5b6000611eed85828601611e5c565b9250506020611efe85828601611b12565b9150509250929050565b600080fd5b600080fd5b600080fd5b60008083601f840112611f2d57611f2c611f08565b5b8235905067ffffffffffffffff811115611f4a57611f49611f0d565b5b602083019150836001820283011115611f6657611f65611f12565b5b9250929050565b60008060008060408587031215611f8757611f86611a04565b5b600085013567ffffffffffffffff811115611fa557611fa4611a09565b5b611fb187828801611f17565b9450945050602085013567ffffffffffffffff811115611fd457611fd3611a09565b5b611fe087828801611f17565b925092505092959194509250565b6000806040838503121561200557612004611a04565b5b600061201385828601611c7f565b925050602061202485828601611c7f565b9150509250929050565b6000806040838503121561204557612044611a04565b5b600061205385828601611c7f565b925050602061206485828601611b12565b9150509250929050565b6000819050919050565b600061209361208e61208984611ac9565b61206e565b611ac9565b9050919050565b60006120a582612078565b9050919050565b60006120b78261209a565b9050919050565b6120c7816120ac565b82525050565b60006020820190506120e260008301846120be565b92915050565b7f4e487b7100000000000000000000000000000000000000000000000000000000600052602260045260246000fd5b6000600282049050600182168061212f57607f821691505b602082108103612142576121416120e8565b5b50919050565b7f4e487b7100000000000000000000000000000000000000000000000000000000600052601160045260246000fd5b600061218282611b80565b91507fffffffffffffffffffffffffffffffffffffffffffffffffffffffffffffffff82036121b4576121b3612148565b5b600182019050919050565b7f4e487b7100000000000000000000000000000000000000000000000000000000600052604160045260246000fd5b60008190508160005260206000209050919050565b60006020601f8301049050919050565b600082821b905092915050565b6000600883026122507fffffffffffffffffffffffffffffffffffffffffffffffffffffffffffffffff82612213565b61225a8683612213565b95508019841693508086168417925050509392505050565b600061228d61228861228384611b80565b61206e565b611b80565b9050919050565b6000819050919050565b6122a783612272565b6122bb6122b382612294565b848454612220565b825550505050565b600090565b6122d06122c3565b6122db81848461229e565b505050565b5b818110156122ff576122f46000826122c8565b6001810190506122e1565b5050565b601f82111561234457612315816121ee565b61231e84612203565b8101602085101561232d578190505b61234161233985612203565b8301826122e0565b50505b505050565b600082821c905092915050565b600061236760001984600802612349565b1980831691505092915050565b60006123808383612356565b9150826002028217905092915050565b61239982611cd0565b67ffffffffffffffff8111156123b2576123b16121bf565b5b6123bc8254612117565b6123c7828285612303565b600060209050601f8311600181146123fa57600084156123e8578287015190505b6123f28582612374565b86555061245a565b601f198416612408866121ee565b60005b828110156124305784890151825560018201915060208501945060208101905061240b565b8683101561244d5784890151612449601f891682612356565b8355505b6001600288020188555050505b505050505050565b82818337600083830152505050565b600061247d8385611cdb565b935061248a838584612462565b61249383611d16565b840190509392505050565b60006080820190506124b36000830189611c3e565b6124c06020830188611cc1565b81810360408301526124d3818688612471565b905081810360608301526124e8818486612471565b9050979650505050505050565b7f4e487b7100000000000000000000000000000000000000000000000000000000600052601260045260246000fd5b600061252f82611b80565b915061253a83611b80565b92508261254a576125496124f5565b5b828204905092915050565b7f506f737420646f6573206e6f7420657869737400000000000000000000000000600082015250565b600061258b601383611cdb565b915061259682612555565b602082019050919050565b600060208201905081810360008301526125ba8161257e565b9050919050565b7f416d6f756e74206d7573742062652067726561746572207468616e2030000000600082015250565b60006125f7601d83611cdb565b9150612602826125c1565b602082019050919050565b60006020820190508181036000830152612626816125ea565b9050919050565b600061263882611b80565b915061264383611b80565b925082820190508082111561265b5761265a612148565b5b92915050565b60006020820190506126766000830184611cc1565b92915050565b60008151905061268b81611c68565b92915050565b6000602082840312156126a7576126a6611a04565b5b60006126b58482850161267c565b91505092915050565b60006126c982611b80565b91506126d483611b80565b92508282026126e281611b80565b915082820484148315176126f9576126f8612148565b5b5092915050565b7f45786365656473206461696c7920766f7465206c696d69740000000000000000600082015250565b6000612736601883611cdb565b915061274182612700565b602082019050919050565b6000602082019050818103600083015261276581612729565b9050919050565b60006060820190506127816000830186611c3e565b61278e6020830185611cc1565b61279b6040830184611c3e565b949350505050565b7f41492063616e206f6e6c7920766f7465206f6e63652070657220706f73740000600082015250565b60006127d9601e83611cdb565b91506127e4826127a3565b602082019050919050565b60006020820190508181036000830152612808816127cc565b9050919050565b7f41492063616e206f6e6c7920766f7465206f6e2074686520666972737420646160008201527f7900000000000000000000000000000000000000000000000000000000000000602082015250565b600061286b602183611cdb565b91506128768261280f565b604082019050919050565b6000602082019050818103600083015261289a8161285e565b9050919050565b60006040820190506128b66000830185611cc1565b6128c36020830184611e9e565b939250505056fea2646970667358221220a2940f6c3c2805073ef7542ca332d304c4d26f6bd382bf297fce7a37f698dd1b64736f6c634300081c0033",
  "linkReferences": {},
  "deployedLinkReferences": {}
}