{
  "_format": "hh-sol-artifact-1",
  "contractName": "ContentMediaVoting",
  "sourceName": "contracts/post.sol",
  "abi": [
    {
      "inputs": [
        {
          "internalType": "address",
          "name": "tokenAddress",
          "type": "address"
        }
      ],
      "stateMutability": "nonpayable",
      "type": "constructor"
    },
    {
      "inputs": [
        {
          "internalType": "address",
          "name": "owner",
          "type": "address"
        }
      ],
      "name": "OwnableInvalidOwner",
      "type": "error"
    },
    {
      "inputs": [
        {
          "internalType": "address",
          "name": "account",
          "type": "address"
        }
      ],
      "name": "OwnableUnauthorizedAccount",
      "type": "error"
    },
    {
      "anonymous": false,
      "inputs": [
        {
          "indexed": true,
          "internalType": "address",
          "name": "previousOwner",
          "type": "address"
        },
        {
          "indexed": true,
          "internalType": "address",
          "name": "newOwner",
          "type": "address"
        }
      ],
      "name": "OwnershipTransferred",
      "type": "event"
    },
    {
      "anonymous": false,
      "inputs": [
        {
          "indexed": false,
          "internalType": "uint256",
          "name": "id",
          "type": "uint256"
        },
        {
          "indexed": false,
          "internalType": "address",
          "name": "author",
          "type": "address"
        },
        {
          "indexed": false,
          "internalType": "string",
          "name": "contentHash",
          "type": "string"
        }
      ],
      "name": "PostCreated",
      "type": "event"
    },
    {
      "anonymous": false,
      "inputs": [
        {
          "indexed": false,
          "internalType": "uint256",
          "name": "postId",
          "type": "uint256"
        },
        {
          "indexed": false,
          "internalType": "address",
          "name": "voter",
          "type": "address"
        },
        {
          "indexed": false,
          "internalType": "uint256",
          "name": "amount",
          "type": "uint256"
        }
      ],
      "name": "Voted",
      "type": "event"
    },
    {
      "inputs": [],
      "name": "VOTES_PER_DAY_MULTIPLIER",
      "outputs": [
        {
          "internalType": "uint256",
          "name": "",
          "type": "uint256"
        }
      ],
      "stateMutability": "view",
      "type": "function"
    },
    {
      "inputs": [
        {
          "internalType": "uint256",
          "name": "postId",
          "type": "uint256"
        },
        {
          "internalType": "uint256",
          "name": "amount",
          "type": "uint256"
        }
      ],
      "name": "aiVote",
      "outputs": [],
      "stateMutability": "nonpayable",
      "type": "function"
    },
    {
      "inputs": [
        {
          "internalType": "string",
          "name": "contentHash",
          "type": "string"
        }
      ],
      "name": "createPost",
      "outputs": [],
      "stateMutability": "nonpayable",
      "type": "function"
    },
    {
      "inputs": [],
      "name": "dailyVoteTotals",
      "outputs": [
        {
          "internalType": "uint256",
          "name": "",
          "type": "uint256"
        }
      ],
      "stateMutability": "view",
      "type": "function"
    },
    {
      "inputs": [
        {
          "internalType": "uint256",
          "name": "postId",
          "type": "uint256"
        }
      ],
      "name": "getPostScore",
      "outputs": [
        {
          "internalType": "uint256",
          "name": "",
          "type": "uint256"
        }
      ],
      "stateMutability": "view",
      "type": "function"
    },
    {
      "inputs": [
        {
          "internalType": "address",
          "name": "",
          "type": "address"
        }
      ],
      "name": "lastVoteResetTime",
      "outputs": [
        {
          "internalType": "uint256",
          "name": "",
          "type": "uint256"
        }
      ],
      "stateMutability": "view",
      "type": "function"
    },
    {
      "inputs": [],
      "name": "owner",
      "outputs": [
        {
          "internalType": "address",
          "name": "",
          "type": "address"
        }
      ],
      "stateMutability": "view",
      "type": "function"
    },
    {
      "inputs": [],
      "name": "postCounter",
      "outputs": [
        {
          "internalType": "uint256",
          "name": "",
          "type": "uint256"
        }
      ],
      "stateMutability": "view",
      "type": "function"
    },
    {
      "inputs": [
        {
          "internalType": "uint256",
          "name": "",
          "type": "uint256"
        },
        {
          "internalType": "uint256",
          "name": "",
          "type": "uint256"
        }
      ],
      "name": "postVotes",
      "outputs": [
        {
          "internalType": "address",
          "name": "voter",
          "type": "address"
        },
        {
          "internalType": "uint256",
          "name": "amount",
          "type": "uint256"
        }
      ],
      "stateMutability": "view",
      "type": "function"
    },
    {
      "inputs": [
        {
          "internalType": "uint256",
          "name": "",
          "type": "uint256"
        }
      ],
      "name": "posts",
      "outputs": [
        {
          "internalType": "uint256",
          "name": "id",
          "type": "uint256"
        },
        {
          "internalType": "address",
          "name": "author",
          "type": "address"
        },
        {
          "internalType": "string",
          "name": "contentHash",
          "type": "string"
        },
        {
          "internalType": "uint256",
          "name": "totalScore",
          "type": "uint256"
        },
        {
          "internalType": "uint256",
          "name": "claimedScore",
          "type": "uint256"
        },
        {
          "internalType": "uint256",
          "name": "createdAt",
          "type": "uint256"
        },
        {
          "internalType": "bool",
          "name": "newVote",
          "type": "bool"
        },
        {
          "internalType": "bool",
          "name": "aiVoted",
          "type": "bool"
        }
      ],
      "stateMutability": "view",
      "type": "function"
    },
    {
      "inputs": [],
      "name": "renounceOwnership",
      "outputs": [],
      "stateMutability": "nonpayable",
      "type": "function"
    },
    {
      "inputs": [],
      "name": "token",
      "outputs": [
        {
          "internalType": "contract ISocialMediaToken",
          "name": "",
          "type": "address"
        }
      ],
      "stateMutability": "view",
      "type": "function"
    },
    {
      "inputs": [
        {
          "internalType": "address",
          "name": "newOwner",
          "type": "address"
        }
      ],
      "name": "transferOwnership",
      "outputs": [],
      "stateMutability": "nonpayable",
      "type": "function"
    },
    {
      "inputs": [
        {
          "internalType": "uint256",
          "name": "postId",
          "type": "uint256"
        },
        {
          "internalType": "uint256",
          "name": "amount",
          "type": "uint256"
        }
      ],
      "name": "vote",
      "outputs": [],
      "stateMutability": "nonpayable",
      "type": "function"
    },
    {
      "inputs": [
        {
          "internalType": "address",
          "name": "",
          "type": "address"
        }
      ],
      "name": "votesUsedToday",
      "outputs": [
        {
          "internalType": "uint256",
          "name": "",
          "type": "uint256"
        }
      ],
      "stateMutability": "view",
      "type": "function"
    }
  ],
  "bytecode": "0x608060405234801561001057600080fd5b50604051611e33380380611e3383398181016040528101906100329190610223565b33600073ffffffffffffffffffffffffffffffffffffffff168173ffffffffffffffffffffffffffffffffffffffff16036100a55760006040517f1e4fbdf700000000000000000000000000000000000000000000000000000000815260040161009c919061025f565b60405180910390fd5b6100b4816100fc60201b60201c565b5080600160006101000a81548173ffffffffffffffffffffffffffffffffffffffff021916908373ffffffffffffffffffffffffffffffffffffffff1602179055505061027a565b60008060009054906101000a900473ffffffffffffffffffffffffffffffffffffffff169050816000806101000a81548173ffffffffffffffffffffffffffffffffffffffff021916908373ffffffffffffffffffffffffffffffffffffffff1602179055508173ffffffffffffffffffffffffffffffffffffffff168173ffffffffffffffffffffffffffffffffffffffff167f8be0079c531659141344cd1fd0a4f28419497f9722a3daafe3b4186f6b6457e060405160405180910390a35050565b600080fd5b600073ffffffffffffffffffffffffffffffffffffffff82169050919050565b60006101f0826101c5565b9050919050565b610200816101e5565b811461020b57600080fd5b50565b60008151905061021d816101f7565b92915050565b600060208284031215610239576102386101c0565b5b60006102478482850161020e565b91505092915050565b610259816101e5565b82525050565b60006020820190506102746000830184610250565b92915050565b611baa806102896000396000f3fe608060405234801561001057600080fd5b50600436106100f55760003560e01c8063940e45a111610097578063f2fb16db11610066578063f2fb16db1461027c578063f2fde38b146102ac578063f8a4e6e2146102c8578063fc0c546a146102e4576100f5565b8063940e45a114610208578063b384abef14610226578063c7303c6114610242578063df99b3361461025e576100f5565b806361b18650116100d357806361b186501461017f5780636ebe8f99146101b0578063715018a6146101e05780638da5cb5b146101ea576100f5565b806309b3d75e146100fa5780630b1e7f83146101185780635a26f5b31461014f575b600080fd5b610102610302565b60405161010f9190610fec565b60405180910390f35b610132600480360381019061012d9190611047565b610308565b604051610146989796959493929190611160565b60405180910390f35b61016960048036038101906101649190611047565b610412565b6040516101769190610fec565b60405180910390f35b610199600480360381019061019491906111e5565b610432565b6040516101a7929190611225565b60405180910390f35b6101ca60048036038101906101c5919061127a565b610493565b6040516101d79190610fec565b60405180910390f35b6101e86104ab565b005b6101f26104bf565b6040516101ff91906112a7565b60405180910390f35b6102106104e8565b60405161021d9190610fec565b60405180910390f35b610240600480360381019061023b91906111e5565b6104ee565b005b61025c600480360381019061025791906113f7565b610952565b005b610266610ae1565b6040516102739190610fec565b60405180910390f35b6102966004803603810190610291919061127a565b610ae6565b6040516102a39190610fec565b60405180910390f35b6102c660048036038101906102c1919061127a565b610afe565b005b6102e260048036038101906102dd91906111e5565b610b84565b005b6102ec610e5a565b6040516102f9919061149f565b60405180910390f35b60025481565b60046020528060005260406000206000915090508060000154908060010160009054906101000a900473ffffffffffffffffffffffffffffffffffffffff1690806002018054610357906114e9565b80601f0160208091040260200160405190810160405280929190818152602001828054610383906114e9565b80156103d05780601f106103a5576101008083540402835291602001916103d0565b820191906000526020600020905b8154815290600101906020018083116103b357829003601f168201915b5050505050908060030154908060040154908060050154908060060160009054906101000a900460ff16908060060160019054906101000a900460ff16905088565b600060046000838152602001908152602001600020600301549050919050565b6005602052816000526040600020818154811061044e57600080fd5b9060005260206000209060020201600091509150508060000160009054906101000a900473ffffffffffffffffffffffffffffffffffffffff16908060010154905082565b60066020528060005260406000206000915090505481565b6104b3610e80565b6104bd6000610f07565b565b60008060009054906101000a900473ffffffffffffffffffffffffffffffffffffffff16905090565b60035481565b600254821115610533576040517f08c379a000000000000000000000000000000000000000000000000000000000815260040161052a90611566565b60405180910390fd5b60008111610576576040517f08c379a000000000000000000000000000000000000000000000000000000000815260040161056d906115d2565b60405180910390fd5b62015180600660003373ffffffffffffffffffffffffffffffffffffffff1673ffffffffffffffffffffffffffffffffffffffff168152602001908152602001600020546105c49190611621565b4210610654576000600760003373ffffffffffffffffffffffffffffffffffffffff1673ffffffffffffffffffffffffffffffffffffffff1681526020019081526020016000208190555042600660003373ffffffffffffffffffffffffffffffffffffffff1673ffffffffffffffffffffffffffffffffffffffff168152602001908152602001600020819055505b6000600160009054906101000a900473ffffffffffffffffffffffffffffffffffffffff1673ffffffffffffffffffffffffffffffffffffffff166370a08231336040518263ffffffff1660e01b81526004016106b191906112a7565b602060405180830381865afa1580156106ce573d6000803e3d6000fd5b505050506040513d601f19601f820116820180604052508101906106f2919061166a565b60056106fe9190611697565b90508082600760003373ffffffffffffffffffffffffffffffffffffffff1673ffffffffffffffffffffffffffffffffffffffff1681526020019081526020016000205461074c9190611621565b111561078d576040517f08c379a000000000000000000000000000000000000000000000000000000000815260040161078490611725565b60405180910390fd5b816004600085815260200190815260200160002060030160008282546107b39190611621565b9250508190555060016004600085815260200190815260200160002060060160006101000a81548160ff0219169083151502179055506005600084815260200190815260200160002060405180604001604052803373ffffffffffffffffffffffffffffffffffffffff16815260200184815250908060018154018082558091505060019003906000526020600020906002020160009091909190915060008201518160000160006101000a81548173ffffffffffffffffffffffffffffffffffffffff021916908373ffffffffffffffffffffffffffffffffffffffff16021790555060208201518160010155505081600760003373ffffffffffffffffffffffffffffffffffffffff1673ffffffffffffffffffffffffffffffffffffffff16815260200190815260200160002060008282546108f29190611621565b92505081905550816003600082825461090b9190611621565b925050819055507f1abe610cf2bf87e57dcc1181fcf5ac0934e843d8344ab9eed6e86c799f62585e83338460405161094593929190611745565b60405180910390a1505050565b600260008154809291906109659061177c565b919050555060405180610100016040528060025481526020013373ffffffffffffffffffffffffffffffffffffffff1681526020018281526020016000815260200160008152602001428152602001600015158152602001600015158152506004600060025481526020019081526020016000206000820151816000015560208201518160010160006101000a81548173ffffffffffffffffffffffffffffffffffffffff021916908373ffffffffffffffffffffffffffffffffffffffff1602179055506040820151816002019081610a3f9190611966565b50606082015181600301556080820151816004015560a0820151816005015560c08201518160060160006101000a81548160ff02191690831515021790555060e08201518160060160016101000a81548160ff0219169083151502179055509050507f8e40a51278abe2f4b410c0a96ff0bdd024b22666ca334062bf72afd596984bd66002543383604051610ad693929190611a38565b60405180910390a150565b600581565b60076020528060005260406000206000915090505481565b610b06610e80565b600073ffffffffffffffffffffffffffffffffffffffff168173ffffffffffffffffffffffffffffffffffffffff1603610b785760006040517f1e4fbdf7000000000000000000000000000000000000000000000000000000008152600401610b6f91906112a7565b60405180910390fd5b610b8181610f07565b50565b610b8c610e80565b600254821115610bd1576040517f08c379a0000000000000000000000000000000000000000000000000000000008152600401610bc890611566565b60405180910390fd5b60008111610c14576040517f08c379a0000000000000000000000000000000000000000000000000000000008152600401610c0b906115d2565b60405180910390fd5b6004600083815260200190815260200160002060060160019054906101000a900460ff1615610c78576040517f08c379a0000000000000000000000000000000000000000000000000000000008152600401610c6f90611ac2565b60405180910390fd5b620151806004600084815260200190815260200160002060050154610c9d9190611621565b4210610cde576040517f08c379a0000000000000000000000000000000000000000000000000000000008152600401610cd590611b54565b60405180910390fd5b80600460008481526020019081526020016000206003016000828254610d049190611621565b92505081905550600560008381526020019081526020016000206040518060400160405280610d316104bf565b73ffffffffffffffffffffffffffffffffffffffff16815260200183815250908060018154018082558091505060019003906000526020600020906002020160009091909190915060008201518160000160006101000a81548173ffffffffffffffffffffffffffffffffffffffff021916908373ffffffffffffffffffffffffffffffffffffffff16021790555060208201518160010155505060016004600084815260200190815260200160002060060160016101000a81548160ff0219169083151502179055508060036000828254610e0d9190611621565b925050819055507f1abe610cf2bf87e57dcc1181fcf5ac0934e843d8344ab9eed6e86c799f62585e82610e3e6104bf565b83604051610e4e93929190611745565b60405180910390a15050565b600160009054906101000a900473ffffffffffffffffffffffffffffffffffffffff1681565b610e88610fcb565b73ffffffffffffffffffffffffffffffffffffffff16610ea66104bf565b73ffffffffffffffffffffffffffffffffffffffff1614610f0557610ec9610fcb565b6040517f118cdaa7000000000000000000000000000000000000000000000000000000008152600401610efc91906112a7565b60405180910390fd5b565b60008060009054906101000a900473ffffffffffffffffffffffffffffffffffffffff169050816000806101000a81548173ffffffffffffffffffffffffffffffffffffffff021916908373ffffffffffffffffffffffffffffffffffffffff1602179055508173ffffffffffffffffffffffffffffffffffffffff168173ffffffffffffffffffffffffffffffffffffffff167f8be0079c531659141344cd1fd0a4f28419497f9722a3daafe3b4186f6b6457e060405160405180910390a35050565b600033905090565b6000819050919050565b610fe681610fd3565b82525050565b60006020820190506110016000830184610fdd565b92915050565b6000604051905090565b600080fd5b600080fd5b61102481610fd3565b811461102f57600080fd5b50565b6000813590506110418161101b565b92915050565b60006020828403121561105d5761105c611011565b5b600061106b84828501611032565b91505092915050565b600073ffffffffffffffffffffffffffffffffffffffff82169050919050565b600061109f82611074565b9050919050565b6110af81611094565b82525050565b600081519050919050565b600082825260208201905092915050565b60005b838110156110ef5780820151818401526020810190506110d4565b60008484015250505050565b6000601f19601f8301169050919050565b6000611117826110b5565b61112181856110c0565b93506111318185602086016110d1565b61113a816110fb565b840191505092915050565b60008115159050919050565b61115a81611145565b82525050565b600061010082019050611176600083018b610fdd565b611183602083018a6110a6565b8181036040830152611195818961110c565b90506111a46060830188610fdd565b6111b16080830187610fdd565b6111be60a0830186610fdd565b6111cb60c0830185611151565b6111d860e0830184611151565b9998505050505050505050565b600080604083850312156111fc576111fb611011565b5b600061120a85828601611032565b925050602061121b85828601611032565b9150509250929050565b600060408201905061123a60008301856110a6565b6112476020830184610fdd565b9392505050565b61125781611094565b811461126257600080fd5b50565b6000813590506112748161124e565b92915050565b6000602082840312156112905761128f611011565b5b600061129e84828501611265565b91505092915050565b60006020820190506112bc60008301846110a6565b92915050565b600080fd5b600080fd5b7f4e487b7100000000000000000000000000000000000000000000000000000000600052604160045260246000fd5b611304826110fb565b810181811067ffffffffffffffff82111715611323576113226112cc565b5b80604052505050565b6000611336611007565b905061134282826112fb565b919050565b600067ffffffffffffffff821115611362576113616112cc565b5b61136b826110fb565b9050602081019050919050565b82818337600083830152505050565b600061139a61139584611347565b61132c565b9050828152602081018484840111156113b6576113b56112c7565b5b6113c1848285611378565b509392505050565b600082601f8301126113de576113dd6112c2565b5b81356113ee848260208601611387565b91505092915050565b60006020828403121561140d5761140c611011565b5b600082013567ffffffffffffffff81111561142b5761142a611016565b5b611437848285016113c9565b91505092915050565b6000819050919050565b600061146561146061145b84611074565b611440565b611074565b9050919050565b60006114778261144a565b9050919050565b60006114898261146c565b9050919050565b6114998161147e565b82525050565b60006020820190506114b46000830184611490565b92915050565b7f4e487b7100000000000000000000000000000000000000000000000000000000600052602260045260246000fd5b6000600282049050600182168061150157607f821691505b602082108103611514576115136114ba565b5b50919050565b7f506f737420646f6573206e6f7420657869737400000000000000000000000000600082015250565b60006115506013836110c0565b915061155b8261151a565b602082019050919050565b6000602082019050818103600083015261157f81611543565b9050919050565b7f416d6f756e74206d7573742062652067726561746572207468616e2030000000600082015250565b60006115bc601d836110c0565b91506115c782611586565b602082019050919050565b600060208201905081810360008301526115eb816115af565b9050919050565b7f4e487b7100000000000000000000000000000000000000000000000000000000600052601160045260246000fd5b600061162c82610fd3565b915061163783610fd3565b925082820190508082111561164f5761164e6115f2565b5b92915050565b6000815190506116648161101b565b92915050565b6000602082840312156116805761167f611011565b5b600061168e84828501611655565b91505092915050565b60006116a282610fd3565b91506116ad83610fd3565b92508282026116bb81610fd3565b915082820484148315176116d2576116d16115f2565b5b5092915050565b7f45786365656473206461696c7920766f7465206c696d69740000000000000000600082015250565b600061170f6018836110c0565b915061171a826116d9565b602082019050919050565b6000602082019050818103600083015261173e81611702565b9050919050565b600060608201905061175a6000830186610fdd565b61176760208301856110a6565b6117746040830184610fdd565b949350505050565b600061178782610fd3565b91507fffffffffffffffffffffffffffffffffffffffffffffffffffffffffffffffff82036117b9576117b86115f2565b5b600182019050919050565b60008190508160005260206000209050919050565b60006020601f8301049050919050565b600082821b905092915050565b6000600883026118267fffffffffffffffffffffffffffffffffffffffffffffffffffffffffffffffff826117e9565b61183086836117e9565b95508019841693508086168417925050509392505050565b600061186361185e61185984610fd3565b611440565b610fd3565b9050919050565b6000819050919050565b61187d83611848565b6118916118898261186a565b8484546117f6565b825550505050565b600090565b6118a6611899565b6118b1818484611874565b505050565b5b818110156118d5576118ca60008261189e565b6001810190506118b7565b5050565b601f82111561191a576118eb816117c4565b6118f4846117d9565b81016020851015611903578190505b61191761190f856117d9565b8301826118b6565b50505b505050565b600082821c905092915050565b600061193d6000198460080261191f565b1980831691505092915050565b6000611956838361192c565b9150826002028217905092915050565b61196f826110b5565b67ffffffffffffffff811115611988576119876112cc565b5b61199282546114e9565b61199d8282856118d9565b600060209050601f8311600181146119d057600084156119be578287015190505b6119c8858261194a565b865550611a30565b601f1984166119de866117c4565b60005b82811015611a06578489015182556001820191506020850194506020810190506119e1565b86831015611a235784890151611a1f601f89168261192c565b8355505b6001600288020188555050505b505050505050565b6000606082019050611a4d6000830186610fdd565b611a5a60208301856110a6565b8181036040830152611a6c818461110c565b9050949350505050565b7f41492063616e206f6e6c7920766f7465206f6e63652070657220706f73740000600082015250565b6000611aac601e836110c0565b9150611ab782611a76565b602082019050919050565b60006020820190508181036000830152611adb81611a9f565b9050919050565b7f41492063616e206f6e6c7920766f7465206f6e2074686520666972737420646160008201527f7900000000000000000000000000000000000000000000000000000000000000602082015250565b6000611b3e6021836110c0565b9150611b4982611ae2565b604082019050919050565b60006020820190508181036000830152611b6d81611b31565b905091905056fea2646970667358221220be994a534e711eebcc7c89e4f947ab10b4494827ac07251063d2c20d0114e19964736f6c634300081c0033",
  "linkReferences": {},
  "deployedLinkReferences": {}
}