{
  "_format": "hh-sol-artifact-1",
  "contractName": "ContentMediaSettlement",
  "sourceName": "contracts/settle.sol",
  "abi": [
    {
      "inputs": [
        {
          "internalType": "address",
          "name": "tokenAddress",
          "type": "address"
        },
        {
          "internalType": "address",
          "name": "votingAddress",
          "type": "address"
        }
      ],
      "stateMutability": "nonpayable",
      "type": "constructor"
    },
    {
      "inputs": [],
      "name": "AccessControlBadConfirmation",
      "type": "error"
    },
    {
      "inputs": [
        {
          "internalType": "address",
          "name": "account",
          "type": "address"
        },
        {
          "internalType": "bytes32",
          "name": "neededRole",
          "type": "bytes32"
        }
      ],
      "name": "AccessControlUnauthorizedAccount",
      "type": "error"
    },
    {
      "anonymous": false,
      "inputs": [
        {
          "indexed": false,
          "internalType": "uint256",
          "name": "day",
          "type": "uint256"
        },
        {
          "indexed": false,
          "internalType": "uint256",
          "name": "totalReward",
          "type": "uint256"
        }
      ],
      "name": "DailySettlement",
      "type": "event"
    },
    {
      "anonymous": false,
      "inputs": [
        {
          "indexed": false,
          "internalType": "address",
          "name": "user",
          "type": "address"
        },
        {
          "indexed": false,
          "internalType": "uint256",
          "name": "totalAmount",
          "type": "uint256"
        }
      ],
      "name": "RewardsClaimed",
      "type": "event"
    },
    {
      "anonymous": false,
      "inputs": [
        {
          "indexed": true,
          "internalType": "bytes32",
          "name": "role",
          "type": "bytes32"
        },
        {
          "indexed": true,
          "internalType": "bytes32",
          "name": "previousAdminRole",
          "type": "bytes32"
        },
        {
          "indexed": true,
          "internalType": "bytes32",
          "name": "newAdminRole",
          "type": "bytes32"
        }
      ],
      "name": "RoleAdminChanged",
      "type": "event"
    },
    {
      "anonymous": false,
      "inputs": [
        {
          "indexed": true,
          "internalType": "bytes32",
          "name": "role",
          "type": "bytes32"
        },
        {
          "indexed": true,
          "internalType": "address",
          "name": "account",
          "type": "address"
        },
        {
          "indexed": true,
          "internalType": "address",
          "name": "sender",
          "type": "address"
        }
      ],
      "name": "RoleGranted",
      "type": "event"
    },
    {
      "anonymous": false,
      "inputs": [
        {
          "indexed": true,
          "internalType": "bytes32",
          "name": "role",
          "type": "bytes32"
        },
        {
          "indexed": true,
          "internalType": "address",
          "name": "account",
          "type": "address"
        },
        {
          "indexed": true,
          "internalType": "address",
          "name": "sender",
          "type": "address"
        }
      ],
      "name": "RoleRevoked",
      "type": "event"
    },
    {
      "inputs": [],
      "name": "DEFAULT_ADMIN_ROLE",
      "outputs": [
        {
          "internalType": "bytes32",
          "name": "",
          "type": "bytes32"
        }
      ],
      "stateMutability": "view",
      "type": "function"
    },
    {
      "inputs": [],
      "name": "claimRewards",
      "outputs": [],
      "stateMutability": "nonpayable",
      "type": "function"
    },
    {
      "inputs": [
        {
          "internalType": "uint256",
          "name": "",
          "type": "uint256"
        }
      ],
      "name": "dailyRewards",
      "outputs": [
        {
          "internalType": "uint256",
          "name": "totalReward",
          "type": "uint256"
        },
        {
          "internalType": "uint256",
          "name": "rewardPerVote",
          "type": "uint256"
        },
        {
          "internalType": "bool",
          "name": "settled",
          "type": "bool"
        }
      ],
      "stateMutability": "view",
      "type": "function"
    },
    {
      "inputs": [
        {
          "internalType": "address",
          "name": "user",
          "type": "address"
        }
      ],
      "name": "getClaimableAmount",
      "outputs": [
        {
          "internalType": "uint256",
          "name": "",
          "type": "uint256"
        }
      ],
      "stateMutability": "view",
      "type": "function"
    },
    {
      "inputs": [],
      "name": "getCurrentDay",
      "outputs": [
        {
          "internalType": "uint256",
          "name": "",
          "type": "uint256"
        }
      ],
      "stateMutability": "view",
      "type": "function"
    },
    {
      "inputs": [
        {
          "internalType": "bytes32",
          "name": "role",
          "type": "bytes32"
        }
      ],
      "name": "getRoleAdmin",
      "outputs": [
        {
          "internalType": "bytes32",
          "name": "",
          "type": "bytes32"
        }
      ],
      "stateMutability": "view",
      "type": "function"
    },
    {
      "inputs": [
        {
          "internalType": "bytes32",
          "name": "role",
          "type": "bytes32"
        },
        {
          "internalType": "address",
          "name": "account",
          "type": "address"
        }
      ],
      "name": "grantRole",
      "outputs": [],
      "stateMutability": "nonpayable",
      "type": "function"
    },
    {
      "inputs": [
        {
          "internalType": "bytes32",
          "name": "role",
          "type": "bytes32"
        },
        {
          "internalType": "address",
          "name": "account",
          "type": "address"
        }
      ],
      "name": "hasRole",
      "outputs": [
        {
          "internalType": "bool",
          "name": "",
          "type": "bool"
        }
      ],
      "stateMutability": "view",
      "type": "function"
    },
    {
      "inputs": [
        {
          "internalType": "bytes32",
          "name": "role",
          "type": "bytes32"
        },
        {
          "internalType": "address",
          "name": "callerConfirmation",
          "type": "address"
        }
      ],
      "name": "renounceRole",
      "outputs": [],
      "stateMutability": "nonpayable",
      "type": "function"
    },
    {
      "inputs": [
        {
          "internalType": "bytes32",
          "name": "role",
          "type": "bytes32"
        },
        {
          "internalType": "address",
          "name": "account",
          "type": "address"
        }
      ],
      "name": "revokeRole",
      "outputs": [],
      "stateMutability": "nonpayable",
      "type": "function"
    },
    {
      "inputs": [
        {
          "internalType": "uint256",
          "name": "day",
          "type": "uint256"
        }
      ],
      "name": "settleDay",
      "outputs": [],
      "stateMutability": "nonpayable",
      "type": "function"
    },
    {
      "inputs": [
        {
          "internalType": "bytes4",
          "name": "interfaceId",
          "type": "bytes4"
        }
      ],
      "name": "supportsInterface",
      "outputs": [
        {
          "internalType": "bool",
          "name": "",
          "type": "bool"
        }
      ],
      "stateMutability": "view",
      "type": "function"
    },
    {
      "inputs": [],
      "name": "token",
      "outputs": [
        {
          "internalType": "contract IContentMediaToken",
          "name": "",
          "type": "address"
        }
      ],
      "stateMutability": "view",
      "type": "function"
    },
    {
      "inputs": [],
      "name": "voting",
      "outputs": [
        {
          "internalType": "contract IContentMediaVoting",
          "name": "",
          "type": "address"
        }
      ],
      "stateMutability": "view",
      "type": "function"
    }
  ],
  "bytecode": "0x608060405234801561001057600080fd5b50604051611bdb380380611bdb833981810160405281019061003291906102a1565b81600160006101000a81548173ffffffffffffffffffffffffffffffffffffffff021916908373ffffffffffffffffffffffffffffffffffffffff16021790555080600260006101000a81548173ffffffffffffffffffffffffffffffffffffffff021916908373ffffffffffffffffffffffffffffffffffffffff1602179055506100c76000801b336100cf60201b60201c565b5050506102e1565b60006100e183836101cc60201b60201c565b6101c157600160008085815260200190815260200160002060000160008473ffffffffffffffffffffffffffffffffffffffff1673ffffffffffffffffffffffffffffffffffffffff16815260200190815260200160002060006101000a81548160ff02191690831515021790555061015e61023660201b60201c565b73ffffffffffffffffffffffffffffffffffffffff168273ffffffffffffffffffffffffffffffffffffffff16847f2f8788117e7eff1d82e926ec794901d17c78024a50270940304540a733656f0d60405160405180910390a4600190506101c6565b600090505b92915050565b600080600084815260200190815260200160002060000160008373ffffffffffffffffffffffffffffffffffffffff1673ffffffffffffffffffffffffffffffffffffffff16815260200190815260200160002060009054906101000a900460ff16905092915050565b600033905090565b600080fd5b600073ffffffffffffffffffffffffffffffffffffffff82169050919050565b600061026e82610243565b9050919050565b61027e81610263565b811461028957600080fd5b50565b60008151905061029b81610275565b92915050565b600080604083850312156102b8576102b761023e565b5b60006102c68582860161028c565b92505060206102d78582860161028c565b9150509250929050565b6118eb806102f06000396000f3fe608060405234801561001057600080fd5b50600436106100ea5760003560e01c806391d148541161008c578063d547741f11610066578063d547741f1461024b578063e12f3a6114610267578063fc0c546a14610297578063fce1ccca146102b5576100ea565b806391d14854146101cb578063a217fddf146101fb578063b203dc6014610219576100ea565b806336568abe116100c857806336568abe1461016b578063372500ab146101875780633e6968b6146101915780638093067c146101af576100ea565b806301ffc9a7146100ef578063248a9ca31461011f5780632f2ff15d1461014f575b600080fd5b61010960048036038101906101049190611045565b6102d3565b604051610116919061108d565b60405180910390f35b610139600480360381019061013491906110de565b61034d565b604051610146919061111a565b60405180910390f35b61016960048036038101906101649190611193565b61036c565b005b61018560048036038101906101809190611193565b61038e565b005b61018f610409565b005b610199610543565b6040516101a691906111ec565b60405180910390f35b6101c960048036038101906101c49190611233565b610559565b005b6101e560048036038101906101e09190611193565b6109c3565b6040516101f2919061108d565b60405180910390f35b610203610a2d565b604051610210919061111a565b60405180910390f35b610233600480360381019061022e9190611233565b610a34565b60405161024293929190611260565b60405180910390f35b61026560048036038101906102609190611193565b610a6b565b005b610281600480360381019061027c9190611297565b610a8d565b60405161028e91906111ec565b60405180910390f35b61029f610cd3565b6040516102ac9190611323565b60405180910390f35b6102bd610cf9565b6040516102ca919061135f565b60405180910390f35b60007f7965db0b000000000000000000000000000000000000000000000000000000007bffffffffffffffffffffffffffffffffffffffffffffffffffffffff1916827bffffffffffffffffffffffffffffffffffffffffffffffffffffffff19161480610346575061034582610d1f565b5b9050919050565b6000806000838152602001908152602001600020600101549050919050565b6103758261034d565b61037e81610d89565b6103888383610d9d565b50505050565b610396610e8e565b73ffffffffffffffffffffffffffffffffffffffff168173ffffffffffffffffffffffffffffffffffffffff16146103fa576040517f6697b23200000000000000000000000000000000000000000000000000000000815260040160405180910390fd5b6104048282610e96565b505050565b600061041433610a8d565b905060008111610459576040517f08c379a0000000000000000000000000000000000000000000000000000000008152600401610450906113d7565b60405180910390fd5b6000670de0b6b3a76400009050600081836104749190611455565b9050600160009054906101000a900473ffffffffffffffffffffffffffffffffffffffff1673ffffffffffffffffffffffffffffffffffffffff1663fb93210833836040518363ffffffff1660e01b81526004016104d3929190611495565b600060405180830381600087803b1580156104ed57600080fd5b505af1158015610501573d6000803e3d6000fd5b505050507ffc30cddea38e2bf4d6ea7d3f9ed3b6ad7f176419f4963bd81318067a4aee73fe3382604051610536929190611495565b60405180910390a1505050565b600062015180426105549190611455565b905090565b6000620151804261056a9190611455565b90508181116105ae576040517f08c379a00000000000000000000000000000000000000000000000000000000081526004016105a59061150a565b60405180910390fd5b6003600083815260200190815260200160002060020160009054906101000a900460ff1615610612576040517f08c379a000000000000000000000000000000000000000000000000000000000815260040161060990611576565b60405180910390fd5b600160009054906101000a900473ffffffffffffffffffffffffffffffffffffffff1673ffffffffffffffffffffffffffffffffffffffff166395aaed926040518163ffffffff1660e01b8152600401600060405180830381600087803b15801561067c57600080fd5b505af1158015610690573d6000803e3d6000fd5b505050506000600260009054906101000a900473ffffffffffffffffffffffffffffffffffffffff1673ffffffffffffffffffffffffffffffffffffffff166329ddf49c846040518263ffffffff1660e01b81526004016106f191906111ec565b602060405180830381865afa15801561070e573d6000803e3d6000fd5b505050506040513d601f19601f8201168201806040525081019061073291906115ab565b90506000670de0b6b3a7640000905060008083116107515760006107f9565b8282600160009054906101000a900473ffffffffffffffffffffffffffffffffffffffff1673ffffffffffffffffffffffffffffffffffffffff1663a5ebc8446040518163ffffffff1660e01b8152600401602060405180830381865afa1580156107c0573d6000803e3d6000fd5b505050506040513d601f19601f820116820180604052508101906107e491906115ab565b6107ee91906115d8565b6107f89190611455565b5b90506040518060600160405280600160009054906101000a900473ffffffffffffffffffffffffffffffffffffffff1673ffffffffffffffffffffffffffffffffffffffff1663a5ebc8446040518163ffffffff1660e01b8152600401602060405180830381865afa158015610873573d6000803e3d6000fd5b505050506040513d601f19601f8201168201806040525081019061089791906115ab565b81526020018281526020016001151581525060036000878152602001908152602001600020600082015181600001556020820151816001015560408201518160020160006101000a81548160ff0219169083151502179055509050507fea512c9778e487b69387799188706db9407163e38216222dd0bcaa928e2ae26885600160009054906101000a900473ffffffffffffffffffffffffffffffffffffffff1673ffffffffffffffffffffffffffffffffffffffff1663a5ebc8446040518163ffffffff1660e01b8152600401602060405180830381865afa158015610982573d6000803e3d6000fd5b505050506040513d601f19601f820116820180604052508101906109a691906115ab565b6040516109b492919061161a565b60405180910390a15050505050565b600080600084815260200190815260200160002060000160008373ffffffffffffffffffffffffffffffffffffffff1673ffffffffffffffffffffffffffffffffffffffff16815260200190815260200160002060009054906101000a900460ff16905092915050565b6000801b81565b60036020528060005260406000206000915090508060000154908060010154908060020160009054906101000a900460ff16905083565b610a748261034d565b610a7d81610d89565b610a878383610e96565b50505050565b600080600260009054906101000a900473ffffffffffffffffffffffffffffffffffffffff1673ffffffffffffffffffffffffffffffffffffffff16630706e5bd846040518263ffffffff1660e01b8152600401610aeb9190611643565b600060405180830381865afa158015610b08573d6000803e3d6000fd5b505050506040513d6000823e3d601f19601f82011682018060405250810190610b3191906117b7565b9050600080600090505b8251811015610cc8576000838281518110610b5957610b58611800565b5b6020026020010151905060006003600083815260200190815260200160002090508060020160009054906101000a900460ff168015610bf35750600460008873ffffffffffffffffffffffffffffffffffffffff1673ffffffffffffffffffffffffffffffffffffffff168152602001908152602001600020600083815260200190815260200160002060009054906101000a900460ff16155b15610cb9576000600260009054906101000a900473ffffffffffffffffffffffffffffffffffffffff1673ffffffffffffffffffffffffffffffffffffffff1663cb436d3f848a6040518363ffffffff1660e01b8152600401610c5792919061182f565b602060405180830381865afa158015610c74573d6000803e3d6000fd5b505050506040513d601f19601f82011682018060405250810190610c9891906115ab565b9050816001015481610caa91906115d8565b85610cb59190611858565b9450505b50508080600101915050610b3b565b508092505050919050565b600160009054906101000a900473ffffffffffffffffffffffffffffffffffffffff1681565b600260009054906101000a900473ffffffffffffffffffffffffffffffffffffffff1681565b60007f01ffc9a7000000000000000000000000000000000000000000000000000000007bffffffffffffffffffffffffffffffffffffffffffffffffffffffff1916827bffffffffffffffffffffffffffffffffffffffffffffffffffffffff1916149050919050565b610d9a81610d95610e8e565b610f88565b50565b6000610da983836109c3565b610e8357600160008085815260200190815260200160002060000160008473ffffffffffffffffffffffffffffffffffffffff1673ffffffffffffffffffffffffffffffffffffffff16815260200190815260200160002060006101000a81548160ff021916908315150217905550610e20610e8e565b73ffffffffffffffffffffffffffffffffffffffff168273ffffffffffffffffffffffffffffffffffffffff16847f2f8788117e7eff1d82e926ec794901d17c78024a50270940304540a733656f0d60405160405180910390a460019050610e88565b600090505b92915050565b600033905090565b6000610ea283836109c3565b15610f7d57600080600085815260200190815260200160002060000160008473ffffffffffffffffffffffffffffffffffffffff1673ffffffffffffffffffffffffffffffffffffffff16815260200190815260200160002060006101000a81548160ff021916908315150217905550610f1a610e8e565b73ffffffffffffffffffffffffffffffffffffffff168273ffffffffffffffffffffffffffffffffffffffff16847ff6391f5c32d9c69d2a47ea670b442974b53935d1edc7fd64eb21e047a839171b60405160405180910390a460019050610f82565b600090505b92915050565b610f9282826109c3565b610fd55780826040517fe2517d3f000000000000000000000000000000000000000000000000000000008152600401610fcc92919061188c565b60405180910390fd5b5050565b6000604051905090565b600080fd5b600080fd5b60007fffffffff0000000000000000000000000000000000000000000000000000000082169050919050565b61102281610fed565b811461102d57600080fd5b50565b60008135905061103f81611019565b92915050565b60006020828403121561105b5761105a610fe3565b5b600061106984828501611030565b91505092915050565b60008115159050919050565b61108781611072565b82525050565b60006020820190506110a2600083018461107e565b92915050565b6000819050919050565b6110bb816110a8565b81146110c657600080fd5b50565b6000813590506110d8816110b2565b92915050565b6000602082840312156110f4576110f3610fe3565b5b6000611102848285016110c9565b91505092915050565b611114816110a8565b82525050565b600060208201905061112f600083018461110b565b92915050565b600073ffffffffffffffffffffffffffffffffffffffff82169050919050565b600061116082611135565b9050919050565b61117081611155565b811461117b57600080fd5b50565b60008135905061118d81611167565b92915050565b600080604083850312156111aa576111a9610fe3565b5b60006111b8858286016110c9565b92505060206111c98582860161117e565b9150509250929050565b6000819050919050565b6111e6816111d3565b82525050565b600060208201905061120160008301846111dd565b92915050565b611210816111d3565b811461121b57600080fd5b50565b60008135905061122d81611207565b92915050565b60006020828403121561124957611248610fe3565b5b60006112578482850161121e565b91505092915050565b600060608201905061127560008301866111dd565b61128260208301856111dd565b61128f604083018461107e565b949350505050565b6000602082840312156112ad576112ac610fe3565b5b60006112bb8482850161117e565b91505092915050565b6000819050919050565b60006112e96112e46112df84611135565b6112c4565b611135565b9050919050565b60006112fb826112ce565b9050919050565b600061130d826112f0565b9050919050565b61131d81611302565b82525050565b60006020820190506113386000830184611314565b92915050565b6000611349826112f0565b9050919050565b6113598161133e565b82525050565b60006020820190506113746000830184611350565b92915050565b600082825260208201905092915050565b7f4e6f207265776172647320746f20636c61696d00000000000000000000000000600082015250565b60006113c160138361137a565b91506113cc8261138b565b602082019050919050565b600060208201905081810360008301526113f0816113b4565b9050919050565b7f4e487b7100000000000000000000000000000000000000000000000000000000600052601260045260246000fd5b7f4e487b7100000000000000000000000000000000000000000000000000000000600052601160045260246000fd5b6000611460826111d3565b915061146b836111d3565b92508261147b5761147a6113f7565b5b828204905092915050565b61148f81611155565b82525050565b60006040820190506114aa6000830185611486565b6114b760208301846111dd565b9392505050565b7f43616e206f6e6c7920736574746c652070617374206461797300000000000000600082015250565b60006114f460198361137a565b91506114ff826114be565b602082019050919050565b60006020820190508181036000830152611523816114e7565b9050919050565b7f44617920616c726561647920736574746c656400000000000000000000000000600082015250565b600061156060138361137a565b915061156b8261152a565b602082019050919050565b6000602082019050818103600083015261158f81611553565b9050919050565b6000815190506115a581611207565b92915050565b6000602082840312156115c1576115c0610fe3565b5b60006115cf84828501611596565b91505092915050565b60006115e3826111d3565b91506115ee836111d3565b92508282026115fc816111d3565b9150828204841483151761161357611612611426565b5b5092915050565b600060408201905061162f60008301856111dd565b61163c60208301846111dd565b9392505050565b60006020820190506116586000830184611486565b92915050565b600080fd5b6000601f19601f8301169050919050565b7f4e487b7100000000000000000000000000000000000000000000000000000000600052604160045260246000fd5b6116ac82611663565b810181811067ffffffffffffffff821117156116cb576116ca611674565b5b80604052505050565b60006116de610fd9565b90506116ea82826116a3565b919050565b600067ffffffffffffffff82111561170a57611709611674565b5b602082029050602081019050919050565b600080fd5b600061173361172e846116ef565b6116d4565b905080838252602082019050602084028301858111156117565761175561171b565b5b835b8181101561177f578061176b8882611596565b845260208401935050602081019050611758565b5050509392505050565b600082601f83011261179e5761179d61165e565b5b81516117ae848260208601611720565b91505092915050565b6000602082840312156117cd576117cc610fe3565b5b600082015167ffffffffffffffff8111156117eb576117ea610fe8565b5b6117f784828501611789565b91505092915050565b7f4e487b7100000000000000000000000000000000000000000000000000000000600052603260045260246000fd5b600060408201905061184460008301856111dd565b6118516020830184611486565b9392505050565b6000611863826111d3565b915061186e836111d3565b925082820190508082111561188657611885611426565b5b92915050565b60006040820190506118a16000830185611486565b6118ae602083018461110b565b939250505056fea26469706673582212202171e57423856be996f2a10a7f923afffd3490b56d9d452422ef66348ac3741464736f6c634300081c0033",
  "linkReferences": {},
  "deployedLinkReferences": {}
}