{
  "_format": "hh-sol-artifact-1",
  "contractName": "ContentMediaSettlement",
  "sourceName": "contracts/settle.sol",
  "abi": [
    {
      "inputs": [
        {
          "internalType": "address",
          "name": "tokenAddress",
          "type": "address"
        },
        {
          "internalType": "address",
          "name": "votingContractAddress",
          "type": "address"
        }
      ],
      "stateMutability": "nonpayable",
      "type": "constructor"
    },
    {
      "inputs": [
        {
          "internalType": "address",
          "name": "owner",
          "type": "address"
        }
      ],
      "name": "OwnableInvalidOwner",
      "type": "error"
    },
    {
      "inputs": [
        {
          "internalType": "address",
          "name": "account",
          "type": "address"
        }
      ],
      "name": "OwnableUnauthorizedAccount",
      "type": "error"
    },
    {
      "anonymous": false,
      "inputs": [
        {
          "indexed": false,
          "internalType": "uint256",
          "name": "totalTokensDistributed",
          "type": "uint256"
        },
        {
          "indexed": false,
          "internalType": "uint256",
          "name": "timestamp",
          "type": "uint256"
        }
      ],
      "name": "DailySettlement",
      "type": "event"
    },
    {
      "anonymous": false,
      "inputs": [
        {
          "indexed": true,
          "internalType": "address",
          "name": "previousOwner",
          "type": "address"
        },
        {
          "indexed": true,
          "internalType": "address",
          "name": "newOwner",
          "type": "address"
        }
      ],
      "name": "OwnershipTransferred",
      "type": "event"
    },
    {
      "inputs": [
        {
          "internalType": "uint256",
          "name": "",
          "type": "uint256"
        },
        {
          "internalType": "address",
          "name": "",
          "type": "address"
        }
      ],
      "name": "claimedRewards",
      "outputs": [
        {
          "internalType": "bool",
          "name": "",
          "type": "bool"
        }
      ],
      "stateMutability": "view",
      "type": "function"
    },
    {
      "inputs": [
        {
          "internalType": "uint256",
          "name": "",
          "type": "uint256"
        }
      ],
      "name": "dailyMintAllocation",
      "outputs": [
        {
          "internalType": "uint256",
          "name": "",
          "type": "uint256"
        }
      ],
      "stateMutability": "view",
      "type": "function"
    },
    {
      "inputs": [],
      "name": "lastSettlementTime",
      "outputs": [
        {
          "internalType": "uint256",
          "name": "",
          "type": "uint256"
        }
      ],
      "stateMutability": "view",
      "type": "function"
    },
    {
      "inputs": [],
      "name": "owner",
      "outputs": [
        {
          "internalType": "address",
          "name": "",
          "type": "address"
        }
      ],
      "stateMutability": "view",
      "type": "function"
    },
    {
      "inputs": [],
      "name": "renounceOwnership",
      "outputs": [],
      "stateMutability": "nonpayable",
      "type": "function"
    },
    {
      "inputs": [],
      "name": "settleDailyTokens",
      "outputs": [],
      "stateMutability": "nonpayable",
      "type": "function"
    },
    {
      "inputs": [],
      "name": "token",
      "outputs": [
        {
          "internalType": "contract ISocialMediaToken",
          "name": "",
          "type": "address"
        }
      ],
      "stateMutability": "view",
      "type": "function"
    },
    {
      "inputs": [
        {
          "internalType": "address",
          "name": "newOwner",
          "type": "address"
        }
      ],
      "name": "transferOwnership",
      "outputs": [],
      "stateMutability": "nonpayable",
      "type": "function"
    },
    {
      "inputs": [],
      "name": "votingContract",
      "outputs": [
        {
          "internalType": "contract ContentMediaVoting",
          "name": "",
          "type": "address"
        }
      ],
      "stateMutability": "view",
      "type": "function"
    }
  ],
  "bytecode": "0x608060405234801561001057600080fd5b506040516112b83803806112b88339818101604052810190610032919061026c565b33600073ffffffffffffffffffffffffffffffffffffffff168173ffffffffffffffffffffffffffffffffffffffff16036100a55760006040517f1e4fbdf700000000000000000000000000000000000000000000000000000000815260040161009c91906102bb565b60405180910390fd5b6100b48161014560201b60201c565b5081600160006101000a81548173ffffffffffffffffffffffffffffffffffffffff021916908373ffffffffffffffffffffffffffffffffffffffff16021790555080600260006101000a81548173ffffffffffffffffffffffffffffffffffffffff021916908373ffffffffffffffffffffffffffffffffffffffff1602179055504260058190555050506102d6565b60008060009054906101000a900473ffffffffffffffffffffffffffffffffffffffff169050816000806101000a81548173ffffffffffffffffffffffffffffffffffffffff021916908373ffffffffffffffffffffffffffffffffffffffff1602179055508173ffffffffffffffffffffffffffffffffffffffff168173ffffffffffffffffffffffffffffffffffffffff167f8be0079c531659141344cd1fd0a4f28419497f9722a3daafe3b4186f6b6457e060405160405180910390a35050565b600080fd5b600073ffffffffffffffffffffffffffffffffffffffff82169050919050565b60006102398261020e565b9050919050565b6102498161022e565b811461025457600080fd5b50565b60008151905061026681610240565b92915050565b6000806040838503121561028357610282610209565b5b600061029185828601610257565b92505060206102a285828601610257565b9150509250929050565b6102b58161022e565b82525050565b60006020820190506102d060008301846102ac565b92915050565b610fd3806102e56000396000f3fe608060405234801561001057600080fd5b50600436106100935760003560e01c8063b33068c411610066578063b33068c4146100e8578063c1fc006a14610118578063c35b9fcb14610136578063f2fde38b14610166578063fc0c546a1461018257610093565b80630f17c347146100985780635f191af6146100b6578063715018a6146100c05780638da5cb5b146100ca575b600080fd5b6100a06101a0565b6040516100ad91906108ab565b60405180910390f35b6100be6101a6565b005b6100c86105e9565b005b6100d26105fd565b6040516100df9190610907565b60405180910390f35b61010260048036038101906100fd919061098e565b610626565b60405161010f91906109e9565b60405180910390f35b610120610655565b60405161012d9190610a63565b60405180910390f35b610150600480360381019061014b9190610a7e565b61067b565b60405161015d91906108ab565b60405180910390f35b610180600480360381019061017b9190610aab565b610693565b005b61018a610719565b6040516101979190610af9565b60405180910390f35b60055481565b6101ae61073f565b600160009054906101000a900473ffffffffffffffffffffffffffffffffffffffff1673ffffffffffffffffffffffffffffffffffffffff1663dd9d20146040518163ffffffff1660e01b8152600401600060405180830381600087803b15801561021857600080fd5b505af115801561022c573d6000803e3d6000fd5b505050506000600260009054906101000a900473ffffffffffffffffffffffffffffffffffffffff1673ffffffffffffffffffffffffffffffffffffffff1663940e45a16040518163ffffffff1660e01b8152600401602060405180830381865afa15801561029f573d6000803e3d6000fd5b505050506040513d601f19601f820116820180604052508101906102c39190610b29565b90506000811115610516576000620186a090506000600190505b600260009054906101000a900473ffffffffffffffffffffffffffffffffffffffff1673ffffffffffffffffffffffffffffffffffffffff166309b3d75e6040518163ffffffff1660e01b8152600401602060405180830381865afa15801561034a573d6000803e3d6000fd5b505050506040513d601f19601f8201168201806040525081019061036e9190610b29565b811161051357600080600080600260009054906101000a900473ffffffffffffffffffffffffffffffffffffffff1673ffffffffffffffffffffffffffffffffffffffff16630b1e7f83866040518263ffffffff1660e01b81526004016103d591906108ab565b600060405180830381865afa1580156103f2573d6000803e3d6000fd5b505050506040513d6000823e3d601f19601f8201168201806040525081019061041b9190610cf8565b50965050955095505094505080156104fc576000828461043b9190610df9565b9050600088828961044c9190610e2d565b6104569190610e9e565b905081846104649190610ecf565b935060009250600160009054906101000a900473ffffffffffffffffffffffffffffffffffffffff1673ffffffffffffffffffffffffffffffffffffffff1663158a498887836040518363ffffffff1660e01b81526004016104c7929190610f03565b600060405180830381600087803b1580156104e157600080fd5b505af11580156104f5573d6000803e3d6000fd5b5050505050505b50505050808061050b90610f2c565b9150506102dd565b50505b426005819055507fea512c9778e487b69387799188706db9407163e38216222dd0bcaa928e2ae268600160009054906101000a900473ffffffffffffffffffffffffffffffffffffffff1673ffffffffffffffffffffffffffffffffffffffff1663a5ebc8446040518163ffffffff1660e01b8152600401602060405180830381865afa1580156105ab573d6000803e3d6000fd5b505050506040513d601f19601f820116820180604052508101906105cf9190610b29565b426040516105de929190610f74565b60405180910390a150565b6105f161073f565b6105fb60006107c6565b565b60008060009054906101000a900473ffffffffffffffffffffffffffffffffffffffff16905090565b60046020528160005260406000206020528060005260406000206000915091509054906101000a900460ff1681565b600260009054906101000a900473ffffffffffffffffffffffffffffffffffffffff1681565b60036020528060005260406000206000915090505481565b61069b61073f565b600073ffffffffffffffffffffffffffffffffffffffff168173ffffffffffffffffffffffffffffffffffffffff160361070d5760006040517f1e4fbdf70000000000000000000000000000000000000000000000000000000081526004016107049190610907565b60405180910390fd5b610716816107c6565b50565b600160009054906101000a900473ffffffffffffffffffffffffffffffffffffffff1681565b61074761088a565b73ffffffffffffffffffffffffffffffffffffffff166107656105fd565b73ffffffffffffffffffffffffffffffffffffffff16146107c45761078861088a565b6040517f118cdaa70000000000000000000000000000000000000000000000000000000081526004016107bb9190610907565b60405180910390fd5b565b60008060009054906101000a900473ffffffffffffffffffffffffffffffffffffffff169050816000806101000a81548173ffffffffffffffffffffffffffffffffffffffff021916908373ffffffffffffffffffffffffffffffffffffffff1602179055508173ffffffffffffffffffffffffffffffffffffffff168173ffffffffffffffffffffffffffffffffffffffff167f8be0079c531659141344cd1fd0a4f28419497f9722a3daafe3b4186f6b6457e060405160405180910390a35050565b600033905090565b6000819050919050565b6108a581610892565b82525050565b60006020820190506108c0600083018461089c565b92915050565b600073ffffffffffffffffffffffffffffffffffffffff82169050919050565b60006108f1826108c6565b9050919050565b610901816108e6565b82525050565b600060208201905061091c60008301846108f8565b92915050565b6000604051905090565b600080fd5b600080fd5b61093f81610892565b811461094a57600080fd5b50565b60008135905061095c81610936565b92915050565b61096b816108e6565b811461097657600080fd5b50565b60008135905061098881610962565b92915050565b600080604083850312156109a5576109a461092c565b5b60006109b38582860161094d565b92505060206109c485828601610979565b9150509250929050565b60008115159050919050565b6109e3816109ce565b82525050565b60006020820190506109fe60008301846109da565b92915050565b6000819050919050565b6000610a29610a24610a1f846108c6565b610a04565b6108c6565b9050919050565b6000610a3b82610a0e565b9050919050565b6000610a4d82610a30565b9050919050565b610a5d81610a42565b82525050565b6000602082019050610a786000830184610a54565b92915050565b600060208284031215610a9457610a9361092c565b5b6000610aa28482850161094d565b91505092915050565b600060208284031215610ac157610ac061092c565b5b6000610acf84828501610979565b91505092915050565b6000610ae382610a30565b9050919050565b610af381610ad8565b82525050565b6000602082019050610b0e6000830184610aea565b92915050565b600081519050610b2381610936565b92915050565b600060208284031215610b3f57610b3e61092c565b5b6000610b4d84828501610b14565b91505092915050565b600081519050610b6581610962565b92915050565b600080fd5b600080fd5b6000601f19601f8301169050919050565b7f4e487b7100000000000000000000000000000000000000000000000000000000600052604160045260246000fd5b610bbe82610b75565b810181811067ffffffffffffffff82111715610bdd57610bdc610b86565b5b80604052505050565b6000610bf0610922565b9050610bfc8282610bb5565b919050565b600067ffffffffffffffff821115610c1c57610c1b610b86565b5b610c2582610b75565b9050602081019050919050565b60005b83811015610c50578082015181840152602081019050610c35565b60008484015250505050565b6000610c6f610c6a84610c01565b610be6565b905082815260208101848484011115610c8b57610c8a610b70565b5b610c96848285610c32565b509392505050565b600082601f830112610cb357610cb2610b6b565b5b8151610cc3848260208601610c5c565b91505092915050565b610cd5816109ce565b8114610ce057600080fd5b50565b600081519050610cf281610ccc565b92915050565b600080600080600080600080610100898b031215610d1957610d1861092c565b5b6000610d278b828c01610b14565b9850506020610d388b828c01610b56565b975050604089015167ffffffffffffffff811115610d5957610d58610931565b5b610d658b828c01610c9e565b9650506060610d768b828c01610b14565b9550506080610d878b828c01610b14565b94505060a0610d988b828c01610b14565b93505060c0610da98b828c01610ce3565b92505060e0610dba8b828c01610ce3565b9150509295985092959890939650565b7f4e487b7100000000000000000000000000000000000000000000000000000000600052601160045260246000fd5b6000610e0482610892565b9150610e0f83610892565b9250828203905081811115610e2757610e26610dca565b5b92915050565b6000610e3882610892565b9150610e4383610892565b9250828202610e5181610892565b91508282048414831517610e6857610e67610dca565b5b5092915050565b7f4e487b7100000000000000000000000000000000000000000000000000000000600052601260045260246000fd5b6000610ea982610892565b9150610eb483610892565b925082610ec457610ec3610e6f565b5b828204905092915050565b6000610eda82610892565b9150610ee583610892565b9250828201905080821115610efd57610efc610dca565b5b92915050565b6000604082019050610f1860008301856108f8565b610f25602083018461089c565b9392505050565b6000610f3782610892565b91507fffffffffffffffffffffffffffffffffffffffffffffffffffffffffffffffff8203610f6957610f68610dca565b5b600182019050919050565b6000604082019050610f89600083018561089c565b610f96602083018461089c565b939250505056fea26469706673582212205f8cad9c627882cdedc22806925b5af40bec738c1e84d75dce8fccff7a1a22ef64736f6c634300081c0033",
  "linkReferences": {},
  "deployedLinkReferences": {}
}