{
  "_format": "hh-sol-artifact-1",
  "contractName": "ContentMediaSettlement",
  "sourceName": "contracts/settle.sol",
  "abi": [
    {
      "inputs": [
        {
          "internalType": "address",
          "name": "tokenAddress",
          "type": "address"
        },
        {
          "internalType": "address",
          "name": "votingContractAddress",
          "type": "address"
        }
      ],
      "stateMutability": "nonpayable",
      "type": "constructor"
    },
    {
      "inputs": [
        {
          "internalType": "address",
          "name": "owner",
          "type": "address"
        }
      ],
      "name": "OwnableInvalidOwner",
      "type": "error"
    },
    {
      "inputs": [
        {
          "internalType": "address",
          "name": "account",
          "type": "address"
        }
      ],
      "name": "OwnableUnauthorizedAccount",
      "type": "error"
    },
    {
      "anonymous": false,
      "inputs": [
        {
          "indexed": false,
          "internalType": "uint256",
          "name": "totalTokensDistributed",
          "type": "uint256"
        },
        {
          "indexed": false,
          "internalType": "uint256",
          "name": "timestamp",
          "type": "uint256"
        }
      ],
      "name": "DailySettlement",
      "type": "event"
    },
    {
      "anonymous": false,
      "inputs": [
        {
          "indexed": true,
          "internalType": "address",
          "name": "previousOwner",
          "type": "address"
        },
        {
          "indexed": true,
          "internalType": "address",
          "name": "newOwner",
          "type": "address"
        }
      ],
      "name": "OwnershipTransferred",
      "type": "event"
    },
    {
      "inputs": [
        {
          "internalType": "uint256",
          "name": "",
          "type": "uint256"
        },
        {
          "internalType": "address",
          "name": "",
          "type": "address"
        }
      ],
      "name": "claimedRewards",
      "outputs": [
        {
          "internalType": "bool",
          "name": "",
          "type": "bool"
        }
      ],
      "stateMutability": "view",
      "type": "function"
    },
    {
      "inputs": [
        {
          "internalType": "uint256",
          "name": "",
          "type": "uint256"
        }
      ],
      "name": "dailyMintAllocation",
      "outputs": [
        {
          "internalType": "uint256",
          "name": "",
          "type": "uint256"
        }
      ],
      "stateMutability": "view",
      "type": "function"
    },
    {
      "inputs": [],
      "name": "lastSettlementTime",
      "outputs": [
        {
          "internalType": "uint256",
          "name": "",
          "type": "uint256"
        }
      ],
      "stateMutability": "view",
      "type": "function"
    },
    {
      "inputs": [],
      "name": "owner",
      "outputs": [
        {
          "internalType": "address",
          "name": "",
          "type": "address"
        }
      ],
      "stateMutability": "view",
      "type": "function"
    },
    {
      "inputs": [],
      "name": "renounceOwnership",
      "outputs": [],
      "stateMutability": "nonpayable",
      "type": "function"
    },
    {
      "inputs": [],
      "name": "settleDailyTokens",
      "outputs": [],
      "stateMutability": "nonpayable",
      "type": "function"
    },
    {
      "inputs": [],
      "name": "token",
      "outputs": [
        {
          "internalType": "contract ISocialMediaToken",
          "name": "",
          "type": "address"
        }
      ],
      "stateMutability": "view",
      "type": "function"
    },
    {
      "inputs": [
        {
          "internalType": "address",
          "name": "newOwner",
          "type": "address"
        }
      ],
      "name": "transferOwnership",
      "outputs": [],
      "stateMutability": "nonpayable",
      "type": "function"
    },
    {
      "inputs": [],
      "name": "votingContract",
      "outputs": [
        {
          "internalType": "contract ContentMediaVoting",
          "name": "",
          "type": "address"
        }
      ],
      "stateMutability": "view",
      "type": "function"
    }
  ],
  "bytecode": "0x608060405234801561001057600080fd5b506040516112e93803806112e98339818101604052810190610032919061026c565b33600073ffffffffffffffffffffffffffffffffffffffff168173ffffffffffffffffffffffffffffffffffffffff16036100a55760006040517f1e4fbdf700000000000000000000000000000000000000000000000000000000815260040161009c91906102bb565b60405180910390fd5b6100b48161014560201b60201c565b5081600160006101000a81548173ffffffffffffffffffffffffffffffffffffffff021916908373ffffffffffffffffffffffffffffffffffffffff16021790555080600260006101000a81548173ffffffffffffffffffffffffffffffffffffffff021916908373ffffffffffffffffffffffffffffffffffffffff1602179055504260058190555050506102d6565b60008060009054906101000a900473ffffffffffffffffffffffffffffffffffffffff169050816000806101000a81548173ffffffffffffffffffffffffffffffffffffffff021916908373ffffffffffffffffffffffffffffffffffffffff1602179055508173ffffffffffffffffffffffffffffffffffffffff168173ffffffffffffffffffffffffffffffffffffffff167f8be0079c531659141344cd1fd0a4f28419497f9722a3daafe3b4186f6b6457e060405160405180910390a35050565b600080fd5b600073ffffffffffffffffffffffffffffffffffffffff82169050919050565b60006102398261020e565b9050919050565b6102498161022e565b811461025457600080fd5b50565b60008151905061026681610240565b92915050565b6000806040838503121561028357610282610209565b5b600061029185828601610257565b92505060206102a285828601610257565b9150509250929050565b6102b58161022e565b82525050565b60006020820190506102d060008301846102ac565b92915050565b611004806102e56000396000f3fe608060405234801561001057600080fd5b50600436106100935760003560e01c8063b33068c411610066578063b33068c4146100e8578063c1fc006a14610118578063c35b9fcb14610136578063f2fde38b14610166578063fc0c546a1461018257610093565b80630f17c347146100985780635f191af6146100b6578063715018a6146100c05780638da5cb5b146100ca575b600080fd5b6100a06101a0565b6040516100ad91906108ac565b60405180910390f35b6100be6101a6565b005b6100c86105ea565b005b6100d26105fe565b6040516100df9190610908565b60405180910390f35b61010260048036038101906100fd919061098f565b610627565b60405161010f91906109ea565b60405180910390f35b610120610656565b60405161012d9190610a64565b60405180910390f35b610150600480360381019061014b9190610a7f565b61067c565b60405161015d91906108ac565b60405180910390f35b610180600480360381019061017b9190610aac565b610694565b005b61018a61071a565b6040516101979190610afa565b60405180910390f35b60055481565b6101ae610740565b600160009054906101000a900473ffffffffffffffffffffffffffffffffffffffff1673ffffffffffffffffffffffffffffffffffffffff1663dd9d20146040518163ffffffff1660e01b8152600401600060405180830381600087803b15801561021857600080fd5b505af115801561022c573d6000803e3d6000fd5b505050506000600260009054906101000a900473ffffffffffffffffffffffffffffffffffffffff1673ffffffffffffffffffffffffffffffffffffffff1663940e45a16040518163ffffffff1660e01b8152600401602060405180830381865afa15801561029f573d6000803e3d6000fd5b505050506040513d601f19601f820116820180604052508101906102c39190610b2a565b90506000811115610517576000620186a090506000600190505b600260009054906101000a900473ffffffffffffffffffffffffffffffffffffffff1673ffffffffffffffffffffffffffffffffffffffff166309b3d75e6040518163ffffffff1660e01b8152600401602060405180830381865afa15801561034a573d6000803e3d6000fd5b505050506040513d601f19601f8201168201806040525081019061036e9190610b2a565b811161051457600080600080600260009054906101000a900473ffffffffffffffffffffffffffffffffffffffff1673ffffffffffffffffffffffffffffffffffffffff16630b1e7f83866040518263ffffffff1660e01b81526004016103d591906108ac565b600060405180830381865afa1580156103f2573d6000803e3d6000fd5b505050506040513d6000823e3d601f19601f8201168201806040525081019061041b9190610cf9565b5097505050955095505094505080156104fd576000828461043c9190610e2a565b9050600088828961044d9190610e5e565b6104579190610ecf565b905081846104659190610f00565b935060009250600160009054906101000a900473ffffffffffffffffffffffffffffffffffffffff1673ffffffffffffffffffffffffffffffffffffffff1663158a498887836040518363ffffffff1660e01b81526004016104c8929190610f34565b600060405180830381600087803b1580156104e257600080fd5b505af11580156104f6573d6000803e3d6000fd5b5050505050505b50505050808061050c90610f5d565b9150506102dd565b50505b426005819055507fea512c9778e487b69387799188706db9407163e38216222dd0bcaa928e2ae268600160009054906101000a900473ffffffffffffffffffffffffffffffffffffffff1673ffffffffffffffffffffffffffffffffffffffff1663a5ebc8446040518163ffffffff1660e01b8152600401602060405180830381865afa1580156105ac573d6000803e3d6000fd5b505050506040513d601f19601f820116820180604052508101906105d09190610b2a565b426040516105df929190610fa5565b60405180910390a150565b6105f2610740565b6105fc60006107c7565b565b60008060009054906101000a900473ffffffffffffffffffffffffffffffffffffffff16905090565b60046020528160005260406000206020528060005260406000206000915091509054906101000a900460ff1681565b600260009054906101000a900473ffffffffffffffffffffffffffffffffffffffff1681565b60036020528060005260406000206000915090505481565b61069c610740565b600073ffffffffffffffffffffffffffffffffffffffff168173ffffffffffffffffffffffffffffffffffffffff160361070e5760006040517f1e4fbdf70000000000000000000000000000000000000000000000000000000081526004016107059190610908565b60405180910390fd5b610717816107c7565b50565b600160009054906101000a900473ffffffffffffffffffffffffffffffffffffffff1681565b61074861088b565b73ffffffffffffffffffffffffffffffffffffffff166107666105fe565b73ffffffffffffffffffffffffffffffffffffffff16146107c55761078961088b565b6040517f118cdaa70000000000000000000000000000000000000000000000000000000081526004016107bc9190610908565b60405180910390fd5b565b60008060009054906101000a900473ffffffffffffffffffffffffffffffffffffffff169050816000806101000a81548173ffffffffffffffffffffffffffffffffffffffff021916908373ffffffffffffffffffffffffffffffffffffffff1602179055508173ffffffffffffffffffffffffffffffffffffffff168173ffffffffffffffffffffffffffffffffffffffff167f8be0079c531659141344cd1fd0a4f28419497f9722a3daafe3b4186f6b6457e060405160405180910390a35050565b600033905090565b6000819050919050565b6108a681610893565b82525050565b60006020820190506108c1600083018461089d565b92915050565b600073ffffffffffffffffffffffffffffffffffffffff82169050919050565b60006108f2826108c7565b9050919050565b610902816108e7565b82525050565b600060208201905061091d60008301846108f9565b92915050565b6000604051905090565b600080fd5b600080fd5b61094081610893565b811461094b57600080fd5b50565b60008135905061095d81610937565b92915050565b61096c816108e7565b811461097757600080fd5b50565b60008135905061098981610963565b92915050565b600080604083850312156109a6576109a561092d565b5b60006109b48582860161094e565b92505060206109c58582860161097a565b9150509250929050565b60008115159050919050565b6109e4816109cf565b82525050565b60006020820190506109ff60008301846109db565b92915050565b6000819050919050565b6000610a2a610a25610a20846108c7565b610a05565b6108c7565b9050919050565b6000610a3c82610a0f565b9050919050565b6000610a4e82610a31565b9050919050565b610a5e81610a43565b82525050565b6000602082019050610a796000830184610a55565b92915050565b600060208284031215610a9557610a9461092d565b5b6000610aa38482850161094e565b91505092915050565b600060208284031215610ac257610ac161092d565b5b6000610ad08482850161097a565b91505092915050565b6000610ae482610a31565b9050919050565b610af481610ad9565b82525050565b6000602082019050610b0f6000830184610aeb565b92915050565b600081519050610b2481610937565b92915050565b600060208284031215610b4057610b3f61092d565b5b6000610b4e84828501610b15565b91505092915050565b600081519050610b6681610963565b92915050565b600080fd5b600080fd5b6000601f19601f8301169050919050565b7f4e487b7100000000000000000000000000000000000000000000000000000000600052604160045260246000fd5b610bbf82610b76565b810181811067ffffffffffffffff82111715610bde57610bdd610b87565b5b80604052505050565b6000610bf1610923565b9050610bfd8282610bb6565b919050565b600067ffffffffffffffff821115610c1d57610c1c610b87565b5b610c2682610b76565b9050602081019050919050565b60005b83811015610c51578082015181840152602081019050610c36565b60008484015250505050565b6000610c70610c6b84610c02565b610be7565b905082815260208101848484011115610c8c57610c8b610b71565b5b610c97848285610c33565b509392505050565b600082601f830112610cb457610cb3610b6c565b5b8151610cc4848260208601610c5d565b91505092915050565b610cd6816109cf565b8114610ce157600080fd5b50565b600081519050610cf381610ccd565b92915050565b60008060008060008060008060006101208a8c031215610d1c57610d1b61092d565b5b6000610d2a8c828d01610b15565b9950506020610d3b8c828d01610b57565b98505060408a015167ffffffffffffffff811115610d5c57610d5b610932565b5b610d688c828d01610c9f565b9750506060610d798c828d01610b15565b9650506080610d8a8c828d01610b15565b95505060a0610d9b8c828d01610b15565b94505060c08a015167ffffffffffffffff811115610dbc57610dbb610932565b5b610dc88c828d01610c9f565b93505060e0610dd98c828d01610ce4565b925050610100610deb8c828d01610ce4565b9150509295985092959850929598565b7f4e487b7100000000000000000000000000000000000000000000000000000000600052601160045260246000fd5b6000610e3582610893565b9150610e4083610893565b9250828203905081811115610e5857610e57610dfb565b5b92915050565b6000610e6982610893565b9150610e7483610893565b9250828202610e8281610893565b91508282048414831517610e9957610e98610dfb565b5b5092915050565b7f4e487b7100000000000000000000000000000000000000000000000000000000600052601260045260246000fd5b6000610eda82610893565b9150610ee583610893565b925082610ef557610ef4610ea0565b5b828204905092915050565b6000610f0b82610893565b9150610f1683610893565b9250828201905080821115610f2e57610f2d610dfb565b5b92915050565b6000604082019050610f4960008301856108f9565b610f56602083018461089d565b9392505050565b6000610f6882610893565b91507fffffffffffffffffffffffffffffffffffffffffffffffffffffffffffffffff8203610f9a57610f99610dfb565b5b600182019050919050565b6000604082019050610fba600083018561089d565b610fc7602083018461089d565b939250505056fea2646970667358221220a13f5f72cd29ed0d5a09c19f224bb8b41313a5c9103e923ada25f3f92e987f9964736f6c634300081c0033",
  "linkReferences": {},
  "deployedLinkReferences": {}
}