{
  "_format": "hh-sol-artifact-1",
  "contractName": "ContentMediaVoting",
  "sourceName": "contracts/post.sol",
  "abi": [
    {
      "inputs": [
        {
          "internalType": "address",
          "name": "tokenAddress",
          "type": "address"
        }
      ],
      "stateMutability": "nonpayable",
      "type": "constructor"
    },
    {
      "inputs": [
        {
          "internalType": "address",
          "name": "owner",
          "type": "address"
        }
      ],
      "name": "OwnableInvalidOwner",
      "type": "error"
    },
    {
      "inputs": [
        {
          "internalType": "address",
          "name": "account",
          "type": "address"
        }
      ],
      "name": "OwnableUnauthorizedAccount",
      "type": "error"
    },
    {
      "anonymous": false,
      "inputs": [
        {
          "indexed": true,
          "internalType": "address",
          "name": "previousOwner",
          "type": "address"
        },
        {
          "indexed": true,
          "internalType": "address",
          "name": "newOwner",
          "type": "address"
        }
      ],
      "name": "OwnershipTransferred",
      "type": "event"
    },
    {
      "anonymous": false,
      "inputs": [
        {
          "indexed": false,
          "internalType": "uint256",
          "name": "id",
          "type": "uint256"
        },
        {
          "indexed": false,
          "internalType": "address",
          "name": "author",
          "type": "address"
        },
        {
          "indexed": false,
          "internalType": "string",
          "name": "contentHash",
          "type": "string"
        },
        {
          "indexed": false,
          "internalType": "string",
          "name": "tags",
          "type": "string"
        }
      ],
      "name": "PostCreated",
      "type": "event"
    },
    {
      "anonymous": false,
      "inputs": [
        {
          "indexed": false,
          "internalType": "uint256",
          "name": "postId",
          "type": "uint256"
        },
        {
          "indexed": false,
          "internalType": "address",
          "name": "voter",
          "type": "address"
        },
        {
          "indexed": false,
          "internalType": "uint256",
          "name": "amount",
          "type": "uint256"
        }
      ],
      "name": "Voted",
      "type": "event"
    },
    {
      "inputs": [],
      "name": "VOTES_PER_DAY_MULTIPLIER",
      "outputs": [
        {
          "internalType": "uint256",
          "name": "",
          "type": "uint256"
        }
      ],
      "stateMutability": "view",
      "type": "function"
    },
    {
      "inputs": [
        {
          "internalType": "uint256",
          "name": "postId",
          "type": "uint256"
        },
        {
          "internalType": "uint256",
          "name": "amount",
          "type": "uint256"
        }
      ],
      "name": "aiVote",
      "outputs": [],
      "stateMutability": "nonpayable",
      "type": "function"
    },
    {
      "inputs": [
        {
          "internalType": "string",
          "name": "contentHash",
          "type": "string"
        },
        {
          "internalType": "string",
          "name": "tags",
          "type": "string"
        }
      ],
      "name": "createPost",
      "outputs": [],
      "stateMutability": "nonpayable",
      "type": "function"
    },
    {
      "inputs": [],
      "name": "dailyVoteTotals",
      "outputs": [
        {
          "internalType": "uint256",
          "name": "",
          "type": "uint256"
        }
      ],
      "stateMutability": "view",
      "type": "function"
    },
    {
      "inputs": [
        {
          "internalType": "uint256",
          "name": "postId",
          "type": "uint256"
        }
      ],
      "name": "getPostScore",
      "outputs": [
        {
          "internalType": "uint256",
          "name": "",
          "type": "uint256"
        }
      ],
      "stateMutability": "view",
      "type": "function"
    },
    {
      "inputs": [
        {
          "internalType": "address",
          "name": "",
          "type": "address"
        }
      ],
      "name": "lastVoteResetTime",
      "outputs": [
        {
          "internalType": "uint256",
          "name": "",
          "type": "uint256"
        }
      ],
      "stateMutability": "view",
      "type": "function"
    },
    {
      "inputs": [],
      "name": "owner",
      "outputs": [
        {
          "internalType": "address",
          "name": "",
          "type": "address"
        }
      ],
      "stateMutability": "view",
      "type": "function"
    },
    {
      "inputs": [],
      "name": "postCounter",
      "outputs": [
        {
          "internalType": "uint256",
          "name": "",
          "type": "uint256"
        }
      ],
      "stateMutability": "view",
      "type": "function"
    },
    {
      "inputs": [
        {
          "internalType": "uint256",
          "name": "",
          "type": "uint256"
        },
        {
          "internalType": "uint256",
          "name": "",
          "type": "uint256"
        }
      ],
      "name": "postVotes",
      "outputs": [
        {
          "internalType": "address",
          "name": "voter",
          "type": "address"
        },
        {
          "internalType": "uint256",
          "name": "amount",
          "type": "uint256"
        }
      ],
      "stateMutability": "view",
      "type": "function"
    },
    {
      "inputs": [
        {
          "internalType": "uint256",
          "name": "",
          "type": "uint256"
        }
      ],
      "name": "posts",
      "outputs": [
        {
          "internalType": "uint256",
          "name": "id",
          "type": "uint256"
        },
        {
          "internalType": "address",
          "name": "author",
          "type": "address"
        },
        {
          "internalType": "string",
          "name": "contentHash",
          "type": "string"
        },
        {
          "internalType": "uint256",
          "name": "totalScore",
          "type": "uint256"
        },
        {
          "internalType": "uint256",
          "name": "claimedScore",
          "type": "uint256"
        },
        {
          "internalType": "uint256",
          "name": "createdAt",
          "type": "uint256"
        },
        {
          "internalType": "string",
          "name": "tags",
          "type": "string"
        },
        {
          "internalType": "bool",
          "name": "newVote",
          "type": "bool"
        },
        {
          "internalType": "bool",
          "name": "aiVoted",
          "type": "bool"
        }
      ],
      "stateMutability": "view",
      "type": "function"
    },
    {
      "inputs": [],
      "name": "renounceOwnership",
      "outputs": [],
      "stateMutability": "nonpayable",
      "type": "function"
    },
    {
      "inputs": [],
      "name": "token",
      "outputs": [
        {
          "internalType": "contract ISocialMediaToken",
          "name": "",
          "type": "address"
        }
      ],
      "stateMutability": "view",
      "type": "function"
    },
    {
      "inputs": [
        {
          "internalType": "address",
          "name": "newOwner",
          "type": "address"
        }
      ],
      "name": "transferOwnership",
      "outputs": [],
      "stateMutability": "nonpayable",
      "type": "function"
    },
    {
      "inputs": [
        {
          "internalType": "uint256",
          "name": "postId",
          "type": "uint256"
        },
        {
          "internalType": "uint256",
          "name": "amount",
          "type": "uint256"
        }
      ],
      "name": "vote",
      "outputs": [],
      "stateMutability": "nonpayable",
      "type": "function"
    },
    {
      "inputs": [
        {
          "internalType": "address",
          "name": "",
          "type": "address"
        }
      ],
      "name": "votesUsedToday",
      "outputs": [
        {
          "internalType": "uint256",
          "name": "",
          "type": "uint256"
        }
      ],
      "stateMutability": "view",
      "type": "function"
    }
  ],
  "bytecode": "0x608060405234801561001057600080fd5b50604051611f3c380380611f3c83398181016040528101906100329190610223565b33600073ffffffffffffffffffffffffffffffffffffffff168173ffffffffffffffffffffffffffffffffffffffff16036100a55760006040517f1e4fbdf700000000000000000000000000000000000000000000000000000000815260040161009c919061025f565b60405180910390fd5b6100b4816100fc60201b60201c565b5080600160006101000a81548173ffffffffffffffffffffffffffffffffffffffff021916908373ffffffffffffffffffffffffffffffffffffffff1602179055505061027a565b60008060009054906101000a900473ffffffffffffffffffffffffffffffffffffffff169050816000806101000a81548173ffffffffffffffffffffffffffffffffffffffff021916908373ffffffffffffffffffffffffffffffffffffffff1602179055508173ffffffffffffffffffffffffffffffffffffffff168173ffffffffffffffffffffffffffffffffffffffff167f8be0079c531659141344cd1fd0a4f28419497f9722a3daafe3b4186f6b6457e060405160405180910390a35050565b600080fd5b600073ffffffffffffffffffffffffffffffffffffffff82169050919050565b60006101f0826101c5565b9050919050565b610200816101e5565b811461020b57600080fd5b50565b60008151905061021d816101f7565b92915050565b600060208284031215610239576102386101c0565b5b60006102478482850161020e565b91505092915050565b610259816101e5565b82525050565b60006020820190506102746000830184610250565b92915050565b611cb3806102896000396000f3fe608060405234801561001057600080fd5b50600436106100f55760003560e01c80638da5cb5b11610097578063f2fb16db11610066578063f2fb16db1461027d578063f2fde38b146102ad578063f8a4e6e2146102c9578063fc0c546a146102e5576100f5565b80638da5cb5b14610207578063940e45a114610225578063b384abef14610243578063df99b3361461025f576100f5565b80635a26f5b3116100d35780635a26f5b31461016c57806361b186501461019c5780636ebe8f99146101cd578063715018a6146101fd576100f5565b806309b3d75e146100fa5780630b1e7f8314610118578063392338f514610150575b600080fd5b610102610303565b60405161010f919061109b565b60405180910390f35b610132600480360381019061012d91906110f6565b610309565b6040516101479998979695949392919061120f565b60405180910390f35b61016a600480360381019061016591906113df565b6104a1565b005b610186600480360381019061018191906110f6565b610650565b604051610193919061109b565b60405180910390f35b6101b660048036038101906101b19190611457565b610670565b6040516101c4929190611497565b60405180910390f35b6101e760048036038101906101e291906114ec565b6106d1565b6040516101f4919061109b565b60405180910390f35b6102056106e9565b005b61020f6106fd565b60405161021c9190611519565b60405180910390f35b61022d610726565b60405161023a919061109b565b60405180910390f35b61025d60048036038101906102589190611457565b61072c565b005b610267610b90565b604051610274919061109b565b60405180910390f35b610297600480360381019061029291906114ec565b610b95565b6040516102a4919061109b565b60405180910390f35b6102c760048036038101906102c291906114ec565b610bad565b005b6102e360048036038101906102de9190611457565b610c33565b005b6102ed610f09565b6040516102fa9190611593565b60405180910390f35b60025481565b60046020528060005260406000206000915090508060000154908060010160009054906101000a900473ffffffffffffffffffffffffffffffffffffffff1690806002018054610358906115dd565b80601f0160208091040260200160405190810160405280929190818152602001828054610384906115dd565b80156103d15780601f106103a6576101008083540402835291602001916103d1565b820191906000526020600020905b8154815290600101906020018083116103b457829003601f168201915b5050505050908060030154908060040154908060050154908060060180546103f8906115dd565b80601f0160208091040260200160405190810160405280929190818152602001828054610424906115dd565b80156104715780601f1061044657610100808354040283529160200191610471565b820191906000526020600020905b81548152906001019060200180831161045457829003601f168201915b5050505050908060070160009054906101000a900460ff16908060070160019054906101000a900460ff16905089565b600260008154809291906104b49061163d565b919050555060405180610120016040528060025481526020013373ffffffffffffffffffffffffffffffffffffffff1681526020018381526020016000815260200160008152602001428152602001828152602001600015158152602001600015158152506004600060025481526020019081526020016000206000820151816000015560208201518160010160006101000a81548173ffffffffffffffffffffffffffffffffffffffff021916908373ffffffffffffffffffffffffffffffffffffffff16021790555060408201518160020190816105949190611827565b50606082015181600301556080820151816004015560a0820151816005015560c08201518160060190816105c89190611827565b5060e08201518160070160006101000a81548160ff0219169083151502179055506101008201518160070160016101000a81548160ff0219169083151502179055509050507f5475621b07408f75d49c828caa5aeacb3a5e98d3497e75730dc184677504401c60025433848460405161064494939291906118f9565b60405180910390a15050565b600060046000838152602001908152602001600020600301549050919050565b6005602052816000526040600020818154811061068c57600080fd5b9060005260206000209060020201600091509150508060000160009054906101000a900473ffffffffffffffffffffffffffffffffffffffff16908060010154905082565b60066020528060005260406000206000915090505481565b6106f1610f2f565b6106fb6000610fb6565b565b60008060009054906101000a900473ffffffffffffffffffffffffffffffffffffffff16905090565b60035481565b600254821115610771576040517f08c379a000000000000000000000000000000000000000000000000000000000815260040161076890611998565b60405180910390fd5b600081116107b4576040517f08c379a00000000000000000000000000000000000000000000000000000000081526004016107ab90611a04565b60405180910390fd5b62015180600660003373ffffffffffffffffffffffffffffffffffffffff1673ffffffffffffffffffffffffffffffffffffffff168152602001908152602001600020546108029190611a24565b4210610892576000600760003373ffffffffffffffffffffffffffffffffffffffff1673ffffffffffffffffffffffffffffffffffffffff1681526020019081526020016000208190555042600660003373ffffffffffffffffffffffffffffffffffffffff1673ffffffffffffffffffffffffffffffffffffffff168152602001908152602001600020819055505b6000600160009054906101000a900473ffffffffffffffffffffffffffffffffffffffff1673ffffffffffffffffffffffffffffffffffffffff166370a08231336040518263ffffffff1660e01b81526004016108ef9190611519565b602060405180830381865afa15801561090c573d6000803e3d6000fd5b505050506040513d601f19601f820116820180604052508101906109309190611a6d565b600561093c9190611a9a565b90508082600760003373ffffffffffffffffffffffffffffffffffffffff1673ffffffffffffffffffffffffffffffffffffffff1681526020019081526020016000205461098a9190611a24565b11156109cb576040517f08c379a00000000000000000000000000000000000000000000000000000000081526004016109c290611b28565b60405180910390fd5b816004600085815260200190815260200160002060030160008282546109f19190611a24565b9250508190555060016004600085815260200190815260200160002060070160006101000a81548160ff0219169083151502179055506005600084815260200190815260200160002060405180604001604052803373ffffffffffffffffffffffffffffffffffffffff16815260200184815250908060018154018082558091505060019003906000526020600020906002020160009091909190915060008201518160000160006101000a81548173ffffffffffffffffffffffffffffffffffffffff021916908373ffffffffffffffffffffffffffffffffffffffff16021790555060208201518160010155505081600760003373ffffffffffffffffffffffffffffffffffffffff1673ffffffffffffffffffffffffffffffffffffffff1681526020019081526020016000206000828254610b309190611a24565b925050819055508160036000828254610b499190611a24565b925050819055507f1abe610cf2bf87e57dcc1181fcf5ac0934e843d8344ab9eed6e86c799f62585e833384604051610b8393929190611b48565b60405180910390a1505050565b600581565b60076020528060005260406000206000915090505481565b610bb5610f2f565b600073ffffffffffffffffffffffffffffffffffffffff168173ffffffffffffffffffffffffffffffffffffffff1603610c275760006040517f1e4fbdf7000000000000000000000000000000000000000000000000000000008152600401610c1e9190611519565b60405180910390fd5b610c3081610fb6565b50565b610c3b610f2f565b600254821115610c80576040517f08c379a0000000000000000000000000000000000000000000000000000000008152600401610c7790611998565b60405180910390fd5b60008111610cc3576040517f08c379a0000000000000000000000000000000000000000000000000000000008152600401610cba90611a04565b60405180910390fd5b6004600083815260200190815260200160002060070160019054906101000a900460ff1615610d27576040517f08c379a0000000000000000000000000000000000000000000000000000000008152600401610d1e90611bcb565b60405180910390fd5b620151806004600084815260200190815260200160002060050154610d4c9190611a24565b4210610d8d576040517f08c379a0000000000000000000000000000000000000000000000000000000008152600401610d8490611c5d565b60405180910390fd5b80600460008481526020019081526020016000206003016000828254610db39190611a24565b92505081905550600560008381526020019081526020016000206040518060400160405280610de06106fd565b73ffffffffffffffffffffffffffffffffffffffff16815260200183815250908060018154018082558091505060019003906000526020600020906002020160009091909190915060008201518160000160006101000a81548173ffffffffffffffffffffffffffffffffffffffff021916908373ffffffffffffffffffffffffffffffffffffffff16021790555060208201518160010155505060016004600084815260200190815260200160002060070160016101000a81548160ff0219169083151502179055508060036000828254610ebc9190611a24565b925050819055507f1abe610cf2bf87e57dcc1181fcf5ac0934e843d8344ab9eed6e86c799f62585e82610eed6106fd565b83604051610efd93929190611b48565b60405180910390a15050565b600160009054906101000a900473ffffffffffffffffffffffffffffffffffffffff1681565b610f3761107a565b73ffffffffffffffffffffffffffffffffffffffff16610f556106fd565b73ffffffffffffffffffffffffffffffffffffffff1614610fb457610f7861107a565b6040517f118cdaa7000000000000000000000000000000000000000000000000000000008152600401610fab9190611519565b60405180910390fd5b565b60008060009054906101000a900473ffffffffffffffffffffffffffffffffffffffff169050816000806101000a81548173ffffffffffffffffffffffffffffffffffffffff021916908373ffffffffffffffffffffffffffffffffffffffff1602179055508173ffffffffffffffffffffffffffffffffffffffff168173ffffffffffffffffffffffffffffffffffffffff167f8be0079c531659141344cd1fd0a4f28419497f9722a3daafe3b4186f6b6457e060405160405180910390a35050565b600033905090565b6000819050919050565b61109581611082565b82525050565b60006020820190506110b0600083018461108c565b92915050565b6000604051905090565b600080fd5b600080fd5b6110d381611082565b81146110de57600080fd5b50565b6000813590506110f0816110ca565b92915050565b60006020828403121561110c5761110b6110c0565b5b600061111a848285016110e1565b91505092915050565b600073ffffffffffffffffffffffffffffffffffffffff82169050919050565b600061114e82611123565b9050919050565b61115e81611143565b82525050565b600081519050919050565b600082825260208201905092915050565b60005b8381101561119e578082015181840152602081019050611183565b60008484015250505050565b6000601f19601f8301169050919050565b60006111c682611164565b6111d0818561116f565b93506111e0818560208601611180565b6111e9816111aa565b840191505092915050565b60008115159050919050565b611209816111f4565b82525050565b600061012082019050611225600083018c61108c565b611232602083018b611155565b8181036040830152611244818a6111bb565b9050611253606083018961108c565b611260608083018861108c565b61126d60a083018761108c565b81810360c083015261127f81866111bb565b905061128e60e0830185611200565b61129c610100830184611200565b9a9950505050505050505050565b600080fd5b600080fd5b7f4e487b7100000000000000000000000000000000000000000000000000000000600052604160045260246000fd5b6112ec826111aa565b810181811067ffffffffffffffff8211171561130b5761130a6112b4565b5b80604052505050565b600061131e6110b6565b905061132a82826112e3565b919050565b600067ffffffffffffffff82111561134a576113496112b4565b5b611353826111aa565b9050602081019050919050565b82818337600083830152505050565b600061138261137d8461132f565b611314565b90508281526020810184848401111561139e5761139d6112af565b5b6113a9848285611360565b509392505050565b600082601f8301126113c6576113c56112aa565b5b81356113d684826020860161136f565b91505092915050565b600080604083850312156113f6576113f56110c0565b5b600083013567ffffffffffffffff811115611414576114136110c5565b5b611420858286016113b1565b925050602083013567ffffffffffffffff811115611441576114406110c5565b5b61144d858286016113b1565b9150509250929050565b6000806040838503121561146e5761146d6110c0565b5b600061147c858286016110e1565b925050602061148d858286016110e1565b9150509250929050565b60006040820190506114ac6000830185611155565b6114b9602083018461108c565b9392505050565b6114c981611143565b81146114d457600080fd5b50565b6000813590506114e6816114c0565b92915050565b600060208284031215611502576115016110c0565b5b6000611510848285016114d7565b91505092915050565b600060208201905061152e6000830184611155565b92915050565b6000819050919050565b600061155961155461154f84611123565b611534565b611123565b9050919050565b600061156b8261153e565b9050919050565b600061157d82611560565b9050919050565b61158d81611572565b82525050565b60006020820190506115a86000830184611584565b92915050565b7f4e487b7100000000000000000000000000000000000000000000000000000000600052602260045260246000fd5b600060028204905060018216806115f557607f821691505b602082108103611608576116076115ae565b5b50919050565b7f4e487b7100000000000000000000000000000000000000000000000000000000600052601160045260246000fd5b600061164882611082565b91507fffffffffffffffffffffffffffffffffffffffffffffffffffffffffffffffff820361167a5761167961160e565b5b600182019050919050565b60008190508160005260206000209050919050565b60006020601f8301049050919050565b600082821b905092915050565b6000600883026116e77fffffffffffffffffffffffffffffffffffffffffffffffffffffffffffffffff826116aa565b6116f186836116aa565b95508019841693508086168417925050509392505050565b600061172461171f61171a84611082565b611534565b611082565b9050919050565b6000819050919050565b61173e83611709565b61175261174a8261172b565b8484546116b7565b825550505050565b600090565b61176761175a565b611772818484611735565b505050565b5b818110156117965761178b60008261175f565b600181019050611778565b5050565b601f8211156117db576117ac81611685565b6117b58461169a565b810160208510156117c4578190505b6117d86117d08561169a565b830182611777565b50505b505050565b600082821c905092915050565b60006117fe600019846008026117e0565b1980831691505092915050565b600061181783836117ed565b9150826002028217905092915050565b61183082611164565b67ffffffffffffffff811115611849576118486112b4565b5b61185382546115dd565b61185e82828561179a565b600060209050601f831160018114611891576000841561187f578287015190505b611889858261180b565b8655506118f1565b601f19841661189f86611685565b60005b828110156118c7578489015182556001820191506020850194506020810190506118a2565b868310156118e457848901516118e0601f8916826117ed565b8355505b6001600288020188555050505b505050505050565b600060808201905061190e600083018761108c565b61191b6020830186611155565b818103604083015261192d81856111bb565b9050818103606083015261194181846111bb565b905095945050505050565b7f506f737420646f6573206e6f7420657869737400000000000000000000000000600082015250565b600061198260138361116f565b915061198d8261194c565b602082019050919050565b600060208201905081810360008301526119b181611975565b9050919050565b7f416d6f756e74206d7573742062652067726561746572207468616e2030000000600082015250565b60006119ee601d8361116f565b91506119f9826119b8565b602082019050919050565b60006020820190508181036000830152611a1d816119e1565b9050919050565b6000611a2f82611082565b9150611a3a83611082565b9250828201905080821115611a5257611a5161160e565b5b92915050565b600081519050611a67816110ca565b92915050565b600060208284031215611a8357611a826110c0565b5b6000611a9184828501611a58565b91505092915050565b6000611aa582611082565b9150611ab083611082565b9250828202611abe81611082565b91508282048414831517611ad557611ad461160e565b5b5092915050565b7f45786365656473206461696c7920766f7465206c696d69740000000000000000600082015250565b6000611b1260188361116f565b9150611b1d82611adc565b602082019050919050565b60006020820190508181036000830152611b4181611b05565b9050919050565b6000606082019050611b5d600083018661108c565b611b6a6020830185611155565b611b77604083018461108c565b949350505050565b7f41492063616e206f6e6c7920766f7465206f6e63652070657220706f73740000600082015250565b6000611bb5601e8361116f565b9150611bc082611b7f565b602082019050919050565b60006020820190508181036000830152611be481611ba8565b9050919050565b7f41492063616e206f6e6c7920766f7465206f6e2074686520666972737420646160008201527f7900000000000000000000000000000000000000000000000000000000000000602082015250565b6000611c4760218361116f565b9150611c5282611beb565b604082019050919050565b60006020820190508181036000830152611c7681611c3a565b905091905056fea26469706673582212203e595e04914a5562332923b15b657d4bd553d38e3384756caf5bd71276d73a3164736f6c634300081c0033",
  "linkReferences": {},
  "deployedLinkReferences": {}
}